:020000040800F2
:10000000203E002099010008612400080922000810
:1000100051230008911300087541000800000000FA
:1000200000000000000000000000000001010008C6
:10003000291800080000000045010008E92E00080A
:10004000B3010008B3010008B3010008B3010008C0
:10005000B3010008B3010008B3010008B3010008B0
:10006000B3010008B3010008B3010008B3010008A0
:10007000B3010008B3010008B3010008B301000890
:10008000B3010008B3010008B3010008B301000880
:10009000B3010008B3010008B3010008B301000870
:1000A000B30100084D320008B301000835300008E4
:1000B000B30100087D320008E9320008B3010008EE
:1000C000B3010008B3010008B3010008B301000840
:1000D000B30100080D3D0008853D0008293E0008D9
:1000E000B3010008B3010008B3010008DFF80CD029
:1000F00000F020FF00480047C5520008203E0020C5
:10010000224B19680868B0E8F00F80F30988BFF344
:100110006F8F4FF0000080F311884EF00D0E704786
:100120000000000006480068006880F3088862B696
:1001300061B6BFF34F8FBFF36F8F00DF00BF00BF0B
:1001400008ED00E0EFF30980BFF36F8F0F4B1A68E3
:1001500020E9F00F106008B54FF0500080F31188CF
:10016000BFF34F8FBFF36F8F06F0BCF84FF0000066
:1001700080F31188BDE8084019680868B0E8F00FFE
:1001800080F30988BFF36F8F704700BF7C000020A9
:10019000EFF3058070470000064880470648004797
:1001A000FEE7FEE7FEE7FEE7FEE7FEE7FEE7FEE727
:1001B000FEE7FEE7FD2E0008ED000008A0F141017A
:1001C000192900D82030704740EA01039B0703D06B
:1001D00009E008C9121F08C0042AFAD203E011F886
:1001E000013B00F8013B521EF9D27047D2B201E048
:1001F00000F8012B491EFBD270470022F6E710B52C
:1002000013460A4604461946FFF7F0FF204610BD84
:1002100030B505462A460B4612F8010B13F8014B80
:1002200008B1A042F8D01CB1002802D06D1CF1E743
:10023000284630BD10B5044604E00B7800F8013BB9
:1002400003B1491C521EF8D2204610BD421C10F8C2
:10025000011B0029FBD1801A704710B5002200E075
:10026000521C835C8C5CA34201D1002BF8D1D8B224
:10027000E1B2401A10BD034611F8012B00F8012B22
:10028000002AF9D11846704730B5054600200346CC
:1002900000E05B1C934205D2EC5CC85C201A01D1E3
:1002A000002CF6D130BD00002DE9FF4F087883B057
:1002B0009946FF2805D0491C2D2804D00024002091
:1002C00008E000200BE00124F9E700EB800003EBDD
:1002D0004000491C0B78FF2BF7D104B140420023AA
:1002E0000293147819461D462D2C01D02B2C04D1D5
:1002F000521C2D2C13D000240294AA461478FF2CF3
:100300000FD00A25A3FB057801FB05814FF0000CF7
:1003100003FB0C11521CE3194AEB0101EEE7012427
:10032000EAE7814453EA010002D019F5C87F06DAF2
:1003300003980021C0E9001107B0BDE8F08F002547
:10034000AE4E2F46DFF8B882184600F0B2FDCDE978
:100350000001B9F1000002DAC9F1000400E004462E
:100360000023A74A1AEB030B42EB045A12E0E00702
:1003700007D02A4633463846414600F0B9FC0746C6
:1003800088462A4633461046194600F0B1FC054619
:100390000E466410002CEAD1DDE90001B9F1000F2E
:1003A0005A46534606DA00F015FD3A46434600F039
:1003B00011FD05E000F09CFC3A46434600F098FC35
:1003C000029A0AB181F00041039AC2E90001B3E741
:1003D0002DE9FF4F1F468DB0D7E901464FF0FF389A
:1003E0002E2045464FF000090B90B9696D1C0E9800
:1003F0008847396A824688470028F6D1BAF1FF3F1C
:100400000AD024F4D064002E11DDBAF12B0F08D0ED
:10041000BAF12D0F0BD102E0404611B08DE744F444
:100420008064B9696D1C0E9888478246761E6946BD
:10043000600501D52D2000E02B208DF8000001F192
:10044000010B0DF1200809E0B9696D1C0E98884771
:1004500082460F9844F40074761E0560002E02DD7B
:10046000BAF1300FF0D00B998A453ED144F08004A8
:1004700006E00F99681CA9F1010944F400740860B2
:10048000B9696D1C761E0E98884782463028F0D0D8
:100490002BE00B998A4505D1200603D444F0800453
:1004A000761E18E0504604F0DFF908B30DF1130191
:1004B000761E44F400748B4508D2AAF130000BF884
:1004C000010B200607D5A9F1010003E0200602D4A4
:1004D00009F101008146A00502D50F99681C08604A
:1004E000B9696D1C0E9888478246002ED1DC53E016
:1004F000002E51DDBAF1650F02D0BAF1450F4BD194
:10050000A00549D5B9696D1C24F44074761E0E9877
:1005100088478246002E0CDD2B2804D0BAF12D0F1F
:1005200007D144F48074B9696D1C0E9888478246DF
:10053000761EE00501D52D2100E02B2108F8011BD6
:10054000CDF82C8021E00DF12901761E44F40074D1
:1005500088450CD2AAF1300010F0FF0088F80000A6
:1005600002D10B99884509D908F1010806E0E00598
:1005700001D5244801E042F20F708146B9696D1C33
:100580000E98884782460F980560002E04DD50467D
:1005900004F06AF90028D6D1F9690E988847FF203F
:1005A0008BF8000088F800000020069007904B466A
:1005B0006A4608A906A8FFF777FEA00502D46FF0E7
:1005C00001002AE714F0240F0AD0E00714D1DDE976
:1005D00006123868031D3B600068C0E900120BE09A
:1005E000DDE9060100F089FC0146E00704D1386826
:1005F000021D3A600068016028460EE700001440C2
:100600000000F03FF1D8FFFFF0B480EA0102D40F00
:100610004200B2EB410F02D20246084611464A00A0
:1006200042D0C30DDDB2C1F3C752AD1A202D35DA69
:10063000C1F3160141F4000204B15242C5F1200693
:1006400002FA06F12A411044B3EBD05F23D0C4B1C3
:10065000012DA0EBC35009DCF0BC4FF0004202EAD0
:10066000C352DBB200F5000000F0B7BA400000F161
:10067000807000EBC350A0F1807040EAD170490057
:1006800009E0490841EAC071A0EBC35000F5000041
:10069000400800EBC350F0BC00F096BA6142012262
:1006A00002EB4101001BF6E7F0BC704781F000410E
:1006B000AAE780F00040A7E780EA010210B502F047
:1006C0000043400022D04A001FD0010E01EB12610E
:1006D000C0F35600C2F3560240F4000042F4000298
:1006E000A0FB022000047F39140400D0401C50EA13
:1006F000124001D44000491EC2B20C0604EBD010D7
:10070000401C4008802A02D003E0002010BD20F0E9
:100710000100002900DA0020184310BD30B480EA3F
:10072000010202F0004530F0004221F0004013D0F9
:1007300090B1C30DD40DC2F31601C0F31600E41A34
:1007400041F4000140F400027D34914201D3641C65
:1007500000E04900002C02DA30BC002070474FF462
:1007600000000023914201D3891A034340084FEA55
:100770004101F7D151B1914202D14FF0004105E062
:1007800002D24FF0010101E06FF0010103EBC45010
:10079000284430BC00F018BA2DE9FE4F804681EAAB
:1007A0000300C00F0C46009021F0004123F00045EB
:1007B000B8EB0200A94105D24046214690461C46AE
:1007C0000B46024623F00040104347D0270DC7F3E5
:1007D0000A00C3F30A510290401A019040286BDAD4
:1007E000C3F3130040F4801B0098924620B100230D
:1007F000D2EB030A63EB0B0B01985946C0F14002A0
:10080000504600F042F906460D4650465946019AB8
:1008100000F05AF910EB08006141002487EA1152F8
:1008200084EAE7731A4340D0009A62B3019A012A1E
:100830004FEA075215DC001B61EB02014FF000424A
:1008400002EA0752CDE90042001C41F58011324610
:100850002B4600F0FFF903B0BDE8F08F404621467B
:10086000F9E7001B61EB0201001C41F58013001841
:100870005B412018A2F5001747EB030140EAD57051
:10088000B6196D4111E06D084FEA360645EAC075AC
:100890004FEA0752001B61EB0201001C41F5801179
:1008A00049084FEA30000019514132462B4603B047
:1008B000BDE8F04F00F0BFB90098012240000023CE
:1008C000D0EB020263EBE073009821464FEAE0743C
:1008D000B8EB000061EB0401E9E783F000435BE75C
:1008E00081F0004158E7C10F80EAE0700844CA0770
:1008F0009623002100F071B996230022114600F0E2
:100900006CB900F0004220F00040C10DC0F31600A9
:1009100040F400007F2901DA00207047962903DCAB
:10092000C1F19601C84001E096398840002AF4D010
:100930004042704720F00040C10DC0F3160040F463
:1009400000007F2901DA00207047962903DCC1F1FD
:100950009601C840704796398840704770B5C1F31A
:100960000A5201F000450024C1F3130140F2FF33A5
:1009700041F480119A4201DA002070BD40F2334305
:100980009A42A2F2334203DC524200F08DF800E0BA
:1009900090402C43F1D0404270BD000030B5041EA1
:1009A00071F1000404DB4FF00044404264EB0101AC
:1009B000141E73F1000405DB1C464FF00043524245
:1009C00063EB04038B4208BF824230BD30B5041E86
:1009D00071F1000404DB4FF00044404264EB01017C
:1009E000141E73F1000405DB1C464FF00043524215
:1009F00063EB0403994208BF904230BD30B50B460B
:100A0000014600202022012409E021FA02F59D423E
:100A100005D303FA02F5491B04FA02F52844151E12
:100A2000A2F10102F1DC30BD2DE9F05F05460020A6
:100A300092469B4688460646814640241BE028464F
:100A400041464746224600F02FF853465A46C01A00
:100A5000914110D311461846224600F016F82D1A7F
:100A600067EB01084F4622460120002100F00DF8F7
:100A700017EB00094E41201EA4F10104DFDC4846BB
:100A800031462A464346BDE8F09F202A04DB203A3F
:100A900000FA02F1002070479140C2F1200320FAD1
:100AA00003F3194390407047202A04DB203A21FACF
:100AB00002F00021704721FA02F3D040C2F1200277
:100AC0009140084319467047202A06DBCB17203A8D
:100AD00041FA02F043EAE07306E041FA02F3D04043
:100AE000C2F120029140084319467047426842B162
:100AF000016811F8013B23B1521EC0E900121846EB
:100B000070470121C160881E704742685AB1C368AE
:100B1000016843B983688B4205D0491E521CC0E965
:100B20000012002070474FF0FF3070470FB40023D1
:100B300000B589B00CA900910B996FF00042CB6011
:100B40001E4B06931E4B07930423CDE901321D4A29
:100B5000089202466B460020FFF73AFC09B05DF8A8
:100B600014FB70B586B006464FF0FF300091CDE91A
:100B70000101002015460C4604903246694604A83F
:100B8000FFF7D4FF02460498211825B108B10846A2
:100B900000E020462860049800280DD0002A02DDDD
:100BA0000098884208D0081B0094CDE90104324621
:100BB000694604A8FFF7BAFF06B070BDED0A000849
:100BC0000B0B0008590F00080029A8BF7047401CF4
:100BD000490008BF20F00100704710B4B0FA80FC53
:100BE00000FA0CF050EA010404BF10BC704749B190
:100BF000CCF1200421FA04F411FA0CF118BF012100
:100C000021430843A3EB0C01CB1D4FEA00614FEADF
:100C1000102042BF002010BC704700EBC3501044AE
:100C20000029A4BF10BC7047401C490008BF20F039
:100C3000010010BC704710B5141E73F1000408DAEF
:100C4000401C41F1000192185B411A4301D120F090
:100C5000010010BD2DE9F04D92469B4611B1B1FA4D
:100C600081F202E0B0FA80F220329046FFF70DFFE9
:100C700004460F4640EA0A0041EA0B0153465A4631
:100C8000084313D0114653EA010019D0C8F14002BD
:100C90005046FFF709FF05460E4650465946424664
:100CA000FFF7F3FE084305D0012004E02046394653
:100CB000BDE8F08D0020054346EAE0762C4337433B
:100CC0000A986305E40AA0EB08000022FD0A44EA42
:100CD00047540A3002D500200146E9E70105101902
:100CE0006941DDE9084500196941BDE8F04DA2E719
:100CF0002DE9FE4F81EA030404F0004421F0004195
:100D000000944FF0000B23F0004350EA01045ED042
:100D100052EA03045BD0C3F30A54C1F30A552C44CE
:100D2000A4F2F3340194A0FB0254C1F3130141F483
:100D30008011C3F3130343F4801301FB024400FB4F
:100D4000034E840A970A44EA815447EA8357A4FB76
:100D5000076802958D0A05FB07854FEA932C04FB73
:100D60000C542705029D4FEA065847EA1637B5EBA3
:100D700008056EEB070C870E920E47EA811742EAD0
:100D80008312A7FB0201B6EB0B0164EB00042B0DF1
:100D900043EA0C335E1844EB1C50DA465146E7FB3D
:100DA0000201C5F313044FEA0B3343EA14534FEA2D
:100DB0000432019C43EA0603A4F10C040294009C53
:100DC000CDE900B4FFF746FF03B0BDE8F08F002087
:100DD0000146F9E72DE9F04D81EA030404F0004BE8
:100DE00021F0004514464FF0000A23F0004150EA7C
:100DF000050220D054EA01021DD0C5F30A5702466D
:100E0000C5F31303C1F31300C1F30A5640F4801570
:100E100043F48013A7EB0608101BD64608F2FD38F2
:100E200073EB050002D308F1010801E092185B4161
:100E3000B8F1000F03DA00200146BDE8F08D002074
:100E40004FF48011064684460EE0171B73EB05072E
:100E500005D3121B63EB050306434CEA010C49085A
:100E60004FEA300092185B4150EA0107EDD152EA97
:100E7000030012D082EA040083EA0501084305D08A
:100E8000101BAB4106D20122002306E000224FF0E6
:100E9000004302E06FF0010253101AEB06004CEB26
:100EA000085110EB0A0041EB0B01BDE8F04DFFF7D4
:100EB000C2BE0EB540F2334202920022CDE90022BA
:100EC0001346FFF7C7FE03B000BDC1F30A52C1F3DA
:100ED000130140F2FF3341F480119A4202DA0020FC
:100EE0000146704740F233439A42A2F2334202DC99
:100EF0005242FFF7D9BDFFF7C8BD01F0004330B43F
:100F000021F0004150EA010206D00A0DA2F56072FC
:100F1000C1F31301002A02DC30BC00207047440FEB
:100F200044EAC104C100E01830BC00EBC250FFF736
:100F30004BBE0000064C074D06E0E06840F00103A0
:100F400094E8070098471034AC42F6D3FFF7D2F884
:100F50008C6D0008AC6D0008C0B24FF4F05100F089
:100F600001B800007F2801D9002208E0064A02EB00
:100F70005002C007127800D1120902F00F020120BE
:100F80009040084070470000406C00081CB504F019
:100F9000F9FF012043490402CDE900010023224664
:100FA00041A1444805F030FA01286DD042A003F079
:100FB000F7FA3C490220091DCDE900010023224631
:100FC00046A1494805F020FA01285FD047A003F068
:100FD000E7FA344903200831CDE900010023224615
:100FE0004BA14D4805F010FA012851D04BA003F059
:100FF000D7FA2C4904200C31CDE900010023224608
:101000004EA1524805F000FA012843D050A003F049
:10101000C7FA244905201031CDE9000100232246FA
:1010200055A15A4805F0F0F9012835D058A003F031
:10103000B7FA1C4906201431CDE900014FF40074C1
:10104000002322465DA1644805F0DEF9012825D081
:1010500062A003F0A5FA134907201831CDE9000179
:10106000002322466AA16E4805F0CEF9012817D068
:101070006CA003F095FA0B480C38806805F07AF8FC
:10108000BDE81C4004F0B6BF70A090E778A09EE7D2
:1010900080A0ACE787A0BAE790A0C8E79AA0D8E7FD
:1010A000A6A0E6E7E80000204C45445F5461736B5E
:1010B000000000003D2300084C45445F5461736B01
:1010C000E4BBBBE58AA1E5889BE5BBBAE5A4B1E832
:1010D000B4A5EFBC815C720A000000005749464984
:1010E0005F5461736B000000C544000857494649CE
:1010F0005F5461736BE4BBBBE58AA1E5889BE5BBEC
:10110000BAE5A4B1E8B4A5EFBC815C720A000000A6
:1011100049525F5461736B00ED22000849525F54DD
:1011200061736BE4BBBBE58AA1E5889BE5BBBAE5CF
:10113000A4B1E8B4A5EFBC815C720A00426C75658D
:10114000746F6F74685F5461736B000071130008F3
:10115000426C7565746F6F74685F5461736BE4BB48
:10116000BBE58AA1E5889BE5BBBAE5A4B1E8B4A5D7
:10117000EFBC815C720A0000566F69636549646563
:101180006E746966795F5461736B00009141000869
:10119000566F6963654964656E746966795F546109
:1011A000736BE4BBBBE58AA1E5889BE5BBBAE5A40C
:1011B000B1E8B4A5EFBC815C720A0000556C747292
:1011C00061736F6E69635F44697374616E63655FB9
:1011D0005461736B0000000081400008556C74720C
:1011E00061736F6E69635F44697374616E63655F99
:1011F0005461736BE4BBBBE58AA1E5889BE5BBBA90
:10120000E5A4B1E8B4A5EFBC815C720A000000005F
:10121000526563656976655F5461736B0000000019
:1012200081290008526563656976655F5461736B57
:10123000E4BBBBE58AA1E5889BE5BBBAE5A4B1E8C0
:10124000B4A5EFBC815C720A000000004C45445F0D
:101250005461736BE4BBBBE58AA1E5889BE5BBBA2F
:10126000E68890E58A9FEFBC815C720A000000006E
:10127000574946495F5461736BE4BBBBE58AA1E5FE
:10128000889BE5BBBAE68890E58A9FEFBC815C72DB
:101290000A00000049525F5461736BE4BBBBE58AEE
:1012A000A1E5889BE5BBBAE68890E58A9FEFBC8103
:1012B0005C720A00426C7565746F6F74685F54618C
:1012C000736BE4BBBBE58AA1E5889BE5BBBAE68806
:1012D00090E58A9FEFBC815C720A0000566F6963DB
:1012E000654964656E746966795F5461736BE4BBCC
:1012F000BBE58AA1E5889BE5BBBAE68890E58A9FB5
:10130000EFBC815C720A0000556C747261736F6E81
:1013100069635F44697374616E63655F5461736B85
:10132000E4BBBBE58AA1E5889BE5BBBAE68890E50E
:101330008A9FEFBC815C720A000000005265636501
:101340006976655F5461736BE4BBBBE58AA1E58890
:101350009BE5BBBAE68890E58A9FEFBC815C720A88
:101360000000000001F032BC01F0BCBB01F0CCBBBE
:10137000064CFFF7FBFF20B1FFF7F6FF207002F0ED
:1013800013FF142004F0BEFEF3E70000DC00002091
:10139000FEE710B5002000F0DDFFBDE810400020A2
:1013A00001F000B810B5064C94F9000000F0D2FF2F
:1013B0002078BDE81040404240B200F0F3BF00008A
:1013C0005C00002010B5064C2078404240B200F08E
:1013D000C1FF94F90000BDE8104000F0E3BF000039
:1013E0005C00002070B5002400F02EF84FF400459A
:1013F000144E04E0641CE4B2012000F022FA2946F5
:10140000304600F0C5FE012803D0642C04D301202F
:1014100070BD642CEED3FAE7002404E0641CE4B24F
:10142000012000F00EFA2946304600F0B1FE18B156
:10143000642C04D3022070BD642CEFD3FAE70020A3
:1014400070BD00000008014008B54FF40040ADF841
:10145000000003208DF8020048208DF80300694643
:10146000014800F01BFE08BD0008014008B54FF41C
:101470000040ADF8000003208DF8020010208DF828
:1014800003006946014800F009FE08BD000801405C
:1014900008B50121042001F0FBF90121084601F003
:1014A000F7F94FF40040ADF8000003208DF802007A
:1014B00010208DF803006946034800F0EFFD01217C
:1014C000024800F039FE08BD00080140000230006B
:1014D00070B500244FF40045134E04E0641CE4B2E0
:1014E000012000F0AEF92946304600F051FE0128F7
:1014F00001D1282CF2D3002404E0641CE4B20120C2
:1015000000F09FF92946304600F042FE08B93C2C15
:10151000F3D3232000F095F92946304600F038FE39
:10152000002800D0012070BD0008014070B50020E7
:1015300004464006050EFFF7CBFF641C2843E4B2C7
:10154000082CF6D370BD2DE9FC410E46074600F08D
:1015500025F8FFF747FF10B10220BDE8FC81002409
:101560006D46FFF7E3FF2855641CE4B2052CF8D361
:101570009DF800009DF801109DF8033042189DF879
:1015800002100B441A449DF804309A4203D1307083
:1015900039700020E1E70120DFE7000070B5FFF7B8
:1015A00065FF0A4D4FF4004400222146284600F012
:1015B000FAFD1E2000F039F901222146284600F0EC
:1015C000F2FDBDE870401E2000F03BB9000801406C
:1015D00010B50D49481EFFF7B6FF0B480BA1001FC1
:1015E0000379C2780C4803F003F804210A4A08463C
:1015F00001F0D5F80449481E02F02EFFBDE8104066
:1016000006A10548FEF737BEE00000202564206FE4
:101610004320483A25640000103800202064687494
:101620003131202000000000C10002D502490860CD
:1016300070470249486070470404024000000240BD
:101640000029016802D041F0010102E04FF6FE726C
:10165000114001607047000001684FF6FE721140B2
:1016600001600021016041608160C1603149314AFF
:101670000839904203D1486840F00F0006E02D4A37
:101680001432904204D1486840F0F000486070473E
:10169000284A2832904203D1486840F47060F5E748
:1016A000244A3C32904203D1486840F47040EDE750
:1016B000204A5032904203D1486840F47020E5E758
:1016C0001C4A6432904203D1486840F47000DDE760
:1016D000184A7832904203D1486840F07060D5E7EC
:1016E000154A111F904203D1086840F00F0006E030
:1016F000114A1432904204D1086840F0F0000860AA
:1017000070470D4A2832904203D1086840F4706057
:10171000F5E7094A3C32904203D1086840F4704032
:10172000EDE7054A50329042EAD1086840F4702053
:10173000E5E700000800024008040240406880B26B
:101740007047000002460020D10001D5034900E0A7
:1017500003490968114200D001207047000402408B
:101760000000024030B5026847F6F0739A430C6AF5
:101770008B682343D1E904452C4323438C692343DD
:10178000CC6923434C6A23438C6A2343134303608D
:10179000CA6842600A6882604968C16030BD000062
:1017A00070B5064601218CB0084601F04DF81C4D7D
:1017B0002846FFF751FF1B480024CDE90004102004
:1017C000CDE902048020CDE904408001CDE9084044
:1017D00006940794694628460A94FFF7C3FF104D04
:1017E000143D2846FFF738FF2815CDE90240019641
:1017F000694628460894FFF7B5FF0A4C0122241FCA
:101800008021204602F03CFB01224021204602F0CC
:1018100037FB01212846FFF713FF0CB070BD000015
:10182000800002400444004070474FF47A714843FE
:10183000B0FBF1F004F066BC4FF47A714843FFF757
:10184000F4BFC0EBC000400000E000BF401EFCD26F
:10185000704700000349002048604FF4806102484F
:10186000FEF7CBBC700000202C05002001A002F088
:10187000E9BD000041542B4D515454434F4E4E3F4F
:101880000D0A000010B5C2B021A002F089FE27A009
:1018900002F0D8FD2AA002F083FE30A132A0CDE9EB
:1018A00000014FF4807435A335A2214602A802F04E
:1018B00087FE3EA002F074FE642243A102A800F05D
:1018C0006BFB28B141A002F06BFE0B2042B010BDB3
:1018D0004AA002F065FE40F25B70009050A356A251
:1018E000214602A802F06CFE5AA002F059FE6422C2
:1018F00035A102A800F050FB20B15DA002F050FE1F
:101900000C20E3E767A002F04BFE0020DEE70000BA
:10191000E58786E5A487E6B885E999A44D51545436
:10192000E8BF9EE68EA50D0A0000000041542B4D35
:10193000515454434C45414E3D300D0A00000000C7
:10194000E6B885E999A44D515454E8BF9EE68EA5AA
:10195000E68890E58A9F0D0A000000007144734AF2
:101960006430437166560000696A366B763774736B
:1019700074717372707A6C7800000000313200006C
:1019800041542B4D515454555345524346473D30D5
:101990002C312C222573222C222573222C222573F4
:1019A000222C302C302C22220D0A0000E9858DE7F4
:1019B000BDAE204D51545420E794A8E688B7E5B158
:1019C0009EE680A75C720A004F4B0000E9858DE718
:1019D000BDAE204D51545420E794A8E688B7E5B138
:1019E0009EE680A7E5A4B1E8B4A5EFBC8CE58786A8
:1019F000E5A487E9878DE590AF0D0A00E9858DE7BD
:101A0000BDAE204D51545420E794A8E688B7E5B107
:101A10009EE680A7E68890E58A9F5C720A00000037
:101A2000677A2D332D6D7174742E696F742D61700A
:101A3000692E636F6D00000041542B4D5154544387
:101A40004F4E4E3D302C222573222C25642C300D18
:101A50000A000000E8BF9EE68EA5E68C87E5AE9AF8
:101A6000204D5154542062726F6B65720D0A000054
:101A7000E8BF9EE68EA5E68C87E5AE9A204D5154D0
:101A8000542062726F6B6572E5A4B1E8B4A5EFBC37
:101A90008CE58786E5A487E9878DE590AF5C720ABF
:101AA00000000000E8BF9EE68EA5E68C87E5AE9AB2
:101AB000204D5154542062726F6B6572E68890E538
:101AC0008A9F0D0A0000000000B5C1B006A3009077
:101AD00008A24FF4807101A802F072FD01A802F083
:101AE000B1FC41B000BD000061747472696275742C
:101AF0006573000041542B4D5154545055423D30B4
:101B00002C222573222C222573222C302C300D0AF6
:101B10000000000000B5C1B006A30AA24FF4807116
:101B2000684602F04DFD14220CA1684600F034FA1C
:101B300041B000BD617474726962757465732F7011
:101B40007573680041542B4D5154545355423D30E8
:101B50002C222573222C300D0A0000004F4B000070
:101B600030B5C1B00446FFF775FE11A0009013A375
:101B700014A24FF4807101A802F022FD01A802F026
:101B800061FC4FF47A750EE02846FFF74EFE13A174
:101B90001748FEF73DFB10B1002041B030BD214693
:101BA00014A002F0FDFC641EEED20120F5E7000057
:101BB00031323334353637380000000074657374C1
:101BC0000000000041542B43574A41503D222573E9
:101BD000222C222573220D0A000000005749464995
:101BE00020474F542049500D0A0D0A4F4B0000006A
:101BF0002C0500206A6F696E41702074696D656FF5
:101C000075743A2564200D0A0000000010B52FA05D
:101C100002F0C6FC642233A133A000F0BDF920B16C
:101C200035A002F0BDFC012010BD3DA002F0B8FCC3
:101C300041A002F0B5FC642000F076F920B144A088
:101C400002F0AEFC022010BD49A002F0A9FC4CA09D
:101C500002F0A6FC322223A150A000F09DF920B191
:101C600053A002F09DFC032010BD5CA002F098FC84
:101C700061A002F095FC1E20FFF772FF20B165A065
:101C800002F08EFC042010BD6CA002F089FC72A052
:101C900002F086FCFFF7F6FD20B177A002F080FC91
:101CA000052010BD7FA002F07BFC86A002F078FC2E
:101CB000FFF730FF20B18AA002F072FC062010BDB1
:101CC00092A002F06DFC002010BD0000E58786E5C3
:101CD000A487E8AEBEE7BDAE535441E6A8A1E5BC7B
:101CE0008F0D0A004F4B000041542B43574D4F447A
:101CF000453D310D0A000000E8AEBEE7BDAE5354CD
:101D000041E6A8A1E5BC8FE5A4B1E8B4A5EFBC8C81
:101D1000E58786E5A487E9878DE590AF5C720A00C8
:101D2000E8AEBEE7BDAE535441E6A8A1E5BC8FE6E0
:101D30008890E58A9F0D0A00E58786E5A487E5A4DB
:101D40008DE4BD8DE6A8A1E59D970D0A0000000079
:101D5000E5A48DE4BD8DE5A4B1E8B4A5EFBC8CE5A8
:101D60008786E5A487E9878DE590AF5C720A00005D
:101D7000E5A48DE4BD8DE68890E58A9F0D0A0000FC
:101D8000E58786E5A487E58F96E6B688E887AAE525
:101D90008AA8E8BF9EE68EA50D0A000041542B4399
:101DA000574155544F434F4E4E3D300D0A000000F1
:101DB000E58F96E6B688E887AAE58AA8E8BF9EE69A
:101DC0008EA5E5A4B1E8B4A5EFBC8CE58786E5A4B3
:101DD00087E9878DE590AF5C720A0000E58F96E693
:101DE000B688E887AAE58AA8E8BF9EE68EA5E688B9
:101DF00090E58A9F0D0A0000E58786E5A487E8BF85
:101E00009EE68EA5E8B7AFE794B1E599A85C720AA3
:101E100000000000E8BF9EE68EA5E8B7AFE794B1EA
:101E2000E599A8E5A4B1E8B4A5EFBC8CE58786E503
:101E3000A487E9878DE590AF0D0A0000E8BF9EE614
:101E40008EA5E8B7AFE794B1E599A8E68890E58A52
:101E50009F5C720A00000000E58786E5A4874D516B
:101E60005454E8BF9EE68EA5E69C8DE58AA1E599CF
:101E7000A85C720A00000000E8BF9EE68EA54D51E6
:101E80005454E69C8DE58AA1E599A8E5A4B1E8B48F
:101E9000A5EFBC8CE58786E5A487E9878DE590AF43
:101EA0000D0A0000E8BF9EE68EA54D515454E69CF5
:101EB0008DE58AA1E599A8E68890E58A9F5C720A7B
:101EC00000000000E58786E5A4874D515454E8AE34
:101ED000A2E99885E4B8BBE9A2980D0A00000000C9
:101EE0004D515454E8AEA2E99885E4B8BBE9A298F4
:101EF000E5A4B1E8B4A5EFBC8CE58786E5A487E945
:101F0000878DE590AF5C720A000000004D5154547B
:101F1000E8AEA2E99885E4B8BBE9A298E68890E526
:101F20008A9F0D0A0000000070B5124E04464FF45F
:101F3000805500222946304600F035F94FF4FA70FA
:101F4000FFF773FC01222946304600F02CF90DE022
:101F50006420FFF76AFC08A10948FEF759F908B1A7
:101F6000002070BD214607A002F01AFB641EEFD2CC
:101F7000012070BD000801407265616479000000B5
:101F80002C05002072657365742074696D656F752A
:101F9000743A25640000000070B514460D460646EC
:101FA000FFF758FC304602F04DFA0DE06420FFF7D1
:101FB0003CFC29460748FEF72BF908B1002070BD0C
:101FC000214605A002F0ECFA641EE4B2EED2012034
:101FD00070BD00002C05002074696D656F75743A42
:101FE0002564200D0A0000001B4930B4087808B1B0
:101FF00001224A700022194B4FF40044132828D2C2
:10200000DFE800F0270A0A0A0A0A0A0A0D10141764
:102010001D2020202020230030BC00F00FBF4A707C
:102020000FA108E04A7030BC01F01EBE5C610FA138
:1020300001E01C6110A130BC1248FEF71CB930BC95
:10204000FFF7C6BA30BC00F055BE4A7030BC02F093
:102050007FB830BC70470000DC0000200010014059
:102060002064697374616E6365000000206C6564B0
:10207000206F6E2000000000206C6564206F666693
:10208000000000001038002010B5002303E0CC5CF5
:1020900004B1C4545B1C9342F9DB10BDF0B5CC789D
:1020A000002204F00F03E40601D58C7823430C785A
:1020B0004FF00F0C14F0FF0F4FF0010E1BD005680E
:1020C0000E880EFA02F42640A64210D196000CFAB1
:1020D00006F725EA070703FA06F5CE783D43282ED2
:1020E00002D0482E02D002E0446100E00461521C9C
:1020F000082AE5D305600A88FF2A1CD94468002213
:1021000002F108060EFA06F50E882E40AE420ED1F8
:1021100096000CFA06F7BC4303FA06F7CE783C4368
:10212000282E00D14561CE78482E00D10561521C81
:10213000082AE5D34460F0BDF0B5144C002801DA5C
:10214000E36900E06368450D2E0185B2C0F30157D5
:10215000B540C0F30342032F05D0C6020AD50326BB
:102160009640B34307E023F07062636823F0706326
:10217000636002E0AB4343F0706201B12A43002880
:1021800001DAE261F0BD6260F0BD000000000140D4
:102190000246002092680A4200D001207047416147
:1021A0007047016170470AB1016170474161704732
:1021B0000948C1688268914203D3C1688068081ADF
:1021C000704781684FF6FF72511AC2684088114407
:1021D00001EB0040704700006000002010B5084887
:1021E00001F096F907498A6840F271235A4300EBDF
:1021F000421008610869CA68801A0A69CA6010BD7D
:10220000002C01403C000020FEE700002249002095
:10221000897940293AD014DC16292DD009DC072908
:1022200038D0082924D00D2924D0152900D1122016
:102230007047182918D0192920D01C29F8D103205B
:10224000704746291CD007DC432921D044291BD0E4
:102250004529F5D10B207047472913D0522905D0C5
:102260005A29F8D105207047012070470220704795
:102270000420704706207047072070470A207047E7
:102280000C2070470D2070470E2070470F207047BC
:1022900010207047112070473C0000200249C87888
:1022A0000022CA70704700003C00002038B50121B0
:1022B000042000F0EDFA0121084600F0E9FA482078
:1022C0008DF803004FF48074ADF800400320064DF4
:1022D0008DF8020069462846FFF7E0FE21462846B1
:1022E000FFF75FFF38BD000000080140064CFFF714
:1022F000D5FF20B1FFF78AFF207001F055FF1420B1
:1023000003F000FFF3E70000DC00002038B50121F6
:10231000102000F0BDFA4FF40045ADF80050102039
:102320008DF803000320044C8DF802006946204616
:10233000FFF7B4FE256138BD00100140034C4FF497
:1023400000456561142003F0DDFEFAE7001001404E
:10235000FEE7000070B5124D041E09DD102128466D
:10236000FFF71FFF20212846FFF719FFA0B213E057
:102370004FF01001284607D1FFF713FF2021284610
:10238000FFF70DFF002007E0FFF709FF2021284697
:10239000FFF707FF604280B2BDE8704000F04FBA1F
:1023A0000008014070B5124D041E09DD4021284689
:1023B000FFF7F7FE80212846FFF7F1FEA0B213E0F9
:1023C0004FF04001284607D1FFF7EBFE8021284659
:1023D000FFF7E5FE002007E0FFF7E1FE8021284639
:1023E000FFF7DFFE604280B2BDE8704000F022BA25
:1023F0000008014008B50121042000F049FA10202E
:102400008DF80300F020ADF8000003208DF80200E5
:1024100069460348FFF742FE00F0F6F908BD0000E8
:102420000008014010B5064C2078404240B2FFF74A
:1024300091FF2078BDE81040404240B2FFF7B2BFA4
:102440005C00002010B5054C94F90000FFF782FFF6
:1024500094F90000BDE81040FFF7A4BF5C00002025
:102460007047000030B50F23C27801780125F2B122
:10247000144A126801F1E02102F4E062C2F5E06260
:10248000120AC2F10404D3404278A24084781C406E
:102490001443220181F80024007800F01F018D40D0
:1024A0004009800000F1E020C0F8005130BD01F08B
:1024B0001F0085404809800000F1E020C0F88051ED
:1024C00030BD00000CED00E00249084302490860FD
:1024D000704700000000FA050CED00E070B5002523
:1024E0000021284600F0F5F80024002000F07BF9D8
:1024F000641CE4B2802CF8D36D1CEDB2082DEFD330
:1025000070BD0000F8B50121082000F0C1F91420C9
:102510008DF8030003208DF802000D4E4FF48074F7
:10252000ADF8004069463046FFF7B8FD6500ADF8EC
:10253000005069463046FFF7B1FD01222146304682
:10254000FFF731FE012229463046FFF72CFEF8BD89
:10255000000C01402DE9F047144E002407464FF0CF
:1025600080084FF40079B51528FA04F23A4049463C
:102570003046FFF718FE012229463046FFF713FECA
:10258000002229463046FFF70EFE641CE4B2082CF8
:10259000EAD3012229463046FFF705FE2946304698
:1025A000BDE8F0470022FFF7FEBD0000000C01402F
:1025B00070B501220B4D540221462846FFF7F3FD6A
:1025C0000122160231462846FFF7EDFD0022214682
:1025D0002846FFF7E8FD31462846BDE87040002256
:1025E000FFF7E1BD000C014070B50A4D4FF40074D7
:1025F000002221462846FFF7D6FD01221102284677
:10260000FFF7D1FD21462846BDE870400122FFF7C3
:10261000CABD0000000C014010B500214FF47A72D1
:102620000020401C9042FCD3491C9142F8D3FFF794
:1026300069FFAE2000F0C6F8D52000F0C3F8802076
:1026400000F0C0F8A82000F0BDF83F2000F0BAF874
:10265000D32000F0B7F8002000F0B4F8402000F0DC
:10266000B1F8A12000F0AEF8C82000F0ABF8DA20F5
:1026700000F0A8F8122000F0A5F8812000F0A2F8E0
:10268000CF2000F09FF8D92000F09CF8F12000F056
:1026900099F8DB2000F096F8302000F093F8A420A1
:1026A00000F090F8A62000F08DF88D2000F08AF858
:1026B000142000F087F8AF2000F084F8BDE8104047
:1026C000FFF70CBF0346012000E05843491EFCD22F
:1026D000704710B50C4640F0B00000F073F81020C1
:1026E00040EA141000F06EF804F00F00BDE810404E
:1026F00000F068B82DE9F0410746CE004000083EE2
:10270000801E15464FF0FF38F1B2C0B2FFF7E1FF6F
:102710001148002400EB05152819A0F5805090F809
:10272000000E00F060F8641CE4B2082CF4D308EB4F
:102730004700F1B2C0B2FFF7CCFF00242819A0F582
:10274000805090F8080E00F04EF8641CE4B2082C9B
:10275000F4D3BDE8F0810000506600082DE9F04791
:102760001D4616460F46814600244FF00A0812E027
:10277000291B0A20491EFFF7A5FFB6FBF0F1B1FBAC
:10278000F8F208FB12123819C1B248463032FFF78E
:10279000B1FF641CE4B2AC42EAD3BDE8F0872DE996
:1027A000F04115460E460746002406E03019C1B236
:1027B0003846FFF79FFF641CE4B22A5D002AF5D17A
:1027C000BDE8F08110B50446FFF7F2FE7820FFF770
:1027D000C1FE0020FFF7BEFE2046FFF7BBFEBDE8AE
:1027E0001040FFF701BF10B50446FFF7E1FE782067
:1027F000FFF7B0FE4020FFF7ADFE2046FFF7AAFE30
:10280000BDE81040FFF7F0BE08B50121042000F03C
:102810003FF818208DF803000320ADF800008DF874
:10282000020069460248FFF739FC00F026FF08BDA8
:102830000008014001464FF0804001F025B80146F4
:102840004FF0804001F022B8044A0029516901D0BC
:10285000014300E0814351617047000000100240D5
:10286000044A0029D16901D0014300E08143D161CC
:102870007047000000100240044A0029116901D08D
:10288000014300E0814311617047000000100240E5
:10289000044A0029916901D0014300E0814391611C
:1028A0007047000000100240044A0029D16801D09E
:1028B000014300E08143D1607047000000100240F6
:1028C00030B5204A5168204B11F00C0103D0042987
:1028D00001D0082901D0036012E05168536801F467
:1028E00070114FF0020413F4803F04EB914102D0C9
:1028F00053689B0301D5154B00E0134B594301600E
:1029000051680F2303EA1111114B5C5C0168E1402F
:1029100041605468072505EA14241C5D21FA04F47B
:102920008460546805EAD4241B5DD940C1605268B4
:10293000032303EA9232064B1B1F9A5CB1FBF2F1B0
:10294000016130BD0010024000127A0000093D0014
:102950001800002082688AB1036800F10C029B5CB9
:102960000B700368002199540188491CC1F30901C7
:1029700001608168491E8160002070470120704716
:102980000C4C00252278002AFCD002230E210120C5
:10299000FFF7E4FE2078FFF727FB074A0421012018
:1029A000FFF7FDFE6078012800D12570142003F0A8
:1029B000A9FBE7E7DC00002010380020002806D043
:1029C00003C88142A1EB000001D200F5806070478E
:1029D00000210160416081607047F0B516460D46E8
:1029E00007004FF0000400D035B90320F0BD2919CD
:1029F0003846FFF7AFFF641CB442F8DB0020F0BD9F
:102A00002DE9F04116460D4607004FF0000400D0B6
:102A10003DB90320BDE8F081295D384601F09AFDFB
:102A2000641CB442F8DB0020F4E70000F0B5064671
:102A300087B001210420FFF72BFF01214804FFF795
:102A40000FFF0424ADF8104018208DF81300204F1C
:102A500003258DF8125004A93846FFF71FFB082004
:102A6000ADF810008DF8134004A93846FFF716FBA7
:102A700000244FF4E1300090ADF808400C20154FD1
:102A8000ADF80440ADF80A00ADF80640ADF80C40D2
:102A90006946384601F03AFA0121384601F0E6F974
:102AA0003046FEF77DFE26208DF814008DF8155077
:102AB0008DF8164001208DF8170005A8FFF7D2FC0D
:102AC000012240F22441384601F008FA07B0F0BD77
:102AD0000008014000440040014880787047000031
:102AE000580000200148007870470000580000207E
:102AF0000448C178012901D0002070470021C1702D
:102B0000012070475800002004484178012901D075
:102B100000207047002141700120704758000020BC
:102B200030B587B001210820FFF7B2FE01218804EB
:102B3000FFF796FE18208DF813004FF48060ADF873
:102B4000100003201F4C8DF8120004A92046FFF747
:102B5000A5FA04218DF813104902ADF8101004A94C
:102B60002046FFF79BFA4FF41650002400900C20EB
:102B7000ADF80A00144DADF80640ADF80C40ADF8C4
:102B80000840ADF804406946284601F0BFF9272106
:102B90008DF8141001208DF8170005208DF8150010
:102BA0008DF8164005A8FFF75DFC012240F2255183
:102BB000284601F093F90121284601F057F907B0A2
:102BC00030BD0000000C01400048004030B501213C
:102BD00087B08803FFF75CFE01210420FFF758FE51
:102BE00018208DF813004FF40070ADF81000214D3F
:102BF00003248DF8124004A92846FFF74FFA482114
:102C00008DF813102815ADF810008DF8124004A9A6
:102C10002846FFF743FA4FF41650002400900C208A
:102C2000ADF80A00144DADF80640ADF80C40ADF813
:102C30000840ADF804406946284601F067F90122D2
:102C400040F22551284601F049F925218DF814104C
:102C500001208DF8170008208DF815008DF816401A
:102C600005A8FFF7FFFB0121284601F0FFF807B098
:102C700030BD0000000801400038014010B5044696
:102C800001F09EF98021204601F002F90028F9D0D8
:102C900010BD000008B501210420FFF7F9FD182040
:102CA0008DF803004FF40060ADF8000003208DF8AC
:102CB000020069460148FFF7F1F908BD000801402C
:102CC00010B50849FDF72AFD0749FDF7F5FC07494E
:102CD000FDF79AFCFDF72EFE81B2BDE810400448D6
:102CE00000F0D6BD000034430000FA440000FA436F
:102CF000002C014010B500240D3805280BD2DFE868
:102D000000F00305111417000BA101E02D240DA103
:102D10000F48FDF7B0FA2046FDF7EEFDBDE8104084
:102D2000FFF7CEBF5A240BA1F2E787240CA1EFE7EF
:102D3000B4240EA1ECE70000736572766F2030209A
:102D400000000000736572766F20343500000000CB
:102D500010380020736572766F2039300000000053
:102D6000736572766F3133350000000073657276DB
:102D70006F313830000000000CB500222648009268
:102D80000192016841F4803101604FF4A063016851
:102D900001F4003101910099491C0091019911B988
:102DA00000999942F3D10168890333D5012101913A
:102DB0001A490A6842F010020A600A6822F0030207
:102DC0000A600A6842F002020A6041684160416894
:102DD0004160416841F480614160416821F47C11A7
:102DE0004160416841F4E8114160016841F080713F
:102DF000016001688901FCD5416821F0030141604F
:102E0000416841F0020141604168C1F3810102293A
:102E1000FAD10CBD01920CBD00100240002002400E
:102E200010B5034CA060034800F072FBE06010BDD9
:102E30003C000020002C0140FFF7DCBA10B5082848
:102E400025D2DFE800F02404080C1014181CFFF74A
:102E5000F9FA0FA116E0FFF7E5FA10A112E0FEF76C
:102E600098FA11A10EE000F031FF12A10AE000F083
:102E70003DFF13A106E0FEF795FA14A102E0FEF76C
:102E8000A1FA15A1BDE810401648FDF7F4B910BD30
:102E9000666F72776F726420000000006261636B7E
:102EA000776F726400000000202073746F70202020
:102EB0000000000020206C656674202000000000E7
:102EC0002072696768742020000000002063796325
:102ED0006C65202000000000204E6379636C652043
:102EE000000000001038002010B503F0B9FA0128E6
:102EF00003D0BDE8104003F071BA10BD0F4810B503
:102F0000016841F00101016041680D4A11404160D2
:102F100001680C4A11400160016821F480210160C0
:102F2000416821F4FE0141604FF41F018160FFF709
:102F300023FF05494FF00060086010BD00100240FB
:102F40000000FFF8FFFFF6FE08ED00E070B5048C0E
:102F500024F001040484058B048C4FF6FF7606EA06
:102F60000313134325F0F3050E4A2B4390420ED072
:102F70000D4A90420BD0B0F1804F08D00B4A9042DE
:102F800005D00B4A904202D00A4A904202D124F066
:102F9000020201E024F00A020A4342F00101038325
:102FA000018470BD002C0140003401400004004049
:102FB00000080040000C0040F0B5048C24F0100420
:102FC0000484078B048C4FF6FF7527F4734705EADA
:102FD00003333B4305EA02221A43114B05EA01166B
:102FE00098420ED00F4B98420BD0B0F1804F08D0D2
:102FF0000D4B984205D00D4B984202D00C4B984295
:1030000005D124F02001314341F0100104E024F007
:10301000A0030B4343F0100102830184F0BD0000C4
:10302000002C014000340140000400400008004032
:10303000000C00402DE9F041464F0221384600F0D7
:103040006CFA00287DD0444D6878012428B1002610
:10305000012807D0022871D125E00020FFF7E0FE0B
:103060002C701EE0FFF7BAF868610020FFF7D8FE69
:10307000696943F2C820814207D9686943F2B061A7
:10308000884202D20220687058E0686942F6FE1158
:10309000884206D9696942F6E650814201D22C7114
:1030A0004AE06C704AE0FFF799F868610020FFF78A
:1030B000B7FE686928491831B0F51B7F0FD96869D8
:1030C00040F2546290420AD2A87801EBD000027814
:1030D000AB7803F0070304FA03F39A4313E068693B
:1030E00040F2D662904231D9686940F6BE229042E1
:1030F0002CD2A87801EBD0000278AB7803F007035C
:1031000004FA03F31A430270A878401CA870A87848
:10311000202813D3AE7008784A78D243D2B29042B6
:103120000AD18878CA78D243D2B2904204D10878C2
:1031300068718878A871EC702E706E700221384624
:1031400000E005E0BDE8F04100F012B9AE70A8E77C
:10315000BDE8F081002C01403C000020F0B50121C9
:103160008BB0C802FFF794FB374F384600F080FA67
:10317000384600F015F90024ADF81A4044F61F60F7
:10318000ADF81800ADF816404720ADF814008DF8E2
:103190001C4005A9384600F0A9FB0320ADF82040EB
:1031A000ADF828000226ADF826400125ADF82260D2
:1031B000ADF8245008A9384600F0BCF901221146A8
:1031C000384600F04DFA01220221384600F048FA54
:1031D00019208DF800008DF801608DF802408DF8FF
:1031E00003506846FFF73EF91B208DF800008DF86C
:1031F00001508DF802408DF803506846FFF732F910
:1032000001A800F037FB6020ADF8040040F6C410C0
:10321000ADF80A00ADF80C40ADF8065001A93846EB
:1032200000F0E2FA0821384600F01AFB0121384686
:1032300000F094F80121384600F0A7F80121384643
:1032400000F099F80BB0F0BD002C014010B5094C0E
:103250000121204600F061F900280AD00121204612
:1032600000F086F804480178012902D18168491CE0
:10327000816010BD002C01403C0000202DE9F04190
:10328000174D1021284600F048F9164C90B1102136
:10329000284600F06DF860780026012700282846AF
:1032A00017D000F037F9E0602770667000212846DB
:1032B00000F0CCFA0121284600F02FF9002806D0B2
:1032C0000121284600F054F86088401C6080BDE869
:1032D000F08100F01FF9A060668067700221E6E7C8
:1032E000000400406000002070B5164E01213046F9
:1032F00000F013F9002823D0134CA17813A001F09B
:103300004FF9A0780025062811D2DFE800F0030667
:103310000303030AFEF7AAFA09E000F079FB6570DF
:10332000F8E725700021304600F025F86570A07898
:10333000401CA0703046BDE87040012100F018B874
:1033400070BD0000000800407000002070696E67CA
:10335000466C61673D25640D0A0000000029018864
:1033600002D041F0800101E021F08001018070472E
:10337000C943018270470029018802D041F0010150
:1033800001E021F0010101807047002930F8441F5D
:1033900002D041F4004101E0C1F30E010180704709
:1033A0004B4910B5884202D10121C41486E0B0F126
:1033B000804F09D0474988420DD101210220FFF7F3
:1033C0005BFA0021022064E001210846FFF754FA6D
:1033D000002101205DE04049884206D101210420FE
:1033E000FFF74AFA0021042053E03C49884206D105
:1033F00001210820FFF740FA0021082049E0384960
:10340000884206D101211020FFF736FA0021102052
:103410003FE03449884206D101212020FFF72CFAF1
:103420000021202035E03049884202D10121441496
:1034300044E02E49884202D10121CC043EE02C49CF
:10344000884202D101210C0538E02A49884202D184
:1034500001214C0532E02849884206D10121402053
:10346000FFF70AFA0021402013E02449884206D1E0
:1034700001218020FFF700FA0021802009E0204987
:1034800088420AD1841501212046FFF7F5F9002171
:103490002046BDE81040FFF7EFB91A49884202D133
:1034A00001210C040AE01849884202D101214C0490
:1034B00004E0164988420AD101218C042046FFF716
:1034C000F3F92046BDE810400021FFF7EDB910BD2B
:1034D000002C01400004004000080040000C0040A7
:1034E000001000400014004000340140004C014036
:1034F000005001400054014000180040001C0040F2
:1035000000200040004001400044014000480140CC
:10351000808E7047B0F84000704702460020138A42
:1035200092890B4202EA010202D0002A00D0012057
:10353000704700002DE9F84F0D4604460888434FB8
:10354000DFF80CC1DFF80C81DFF80C914988AA88FC
:103550002B894FF0804A48B3042830D04FF6FF76CD
:103560000828934634D0208C9E4620F48050208436
:10357000A38B208C06EA0132009223F4734306EAFF
:103580000B221A4306EA0E331343BC420AD06445A9
:1035900008D0544506D0444504D04C4502D02F4AAB
:1035A000944245D120F40050009943E02046FFF7B3
:1035B000CDFCE9882046BDE8F84F00F06EB9204602
:1035C000FFF7FAFCE9882046BDE8F84F00F06DB936
:1035D000208C20F480702084B4F81CE0208C06EA53
:1035E000031306EA01222EF0F30E43EA0B0343EA2B
:1035F0000E030092BC420AD0644508D0544506D060
:10360000444504D04C4502D0144A944203D120F4DE
:103610000070009901E020F42060084340F48070BD
:10362000A3832084E9882046BDE8F84F00F049B91B
:1036300020F40240084340F48050A3832084E988AA
:103640002046BDE8F84F00F044B90000002C0140CE
:10365000003401400004004000080040000C00401D
:10366000002A828901D00A4300E08A4382817047A0
:10367000018921F007010181704730B5012187B030
:103680000846FFF7EDF84FF080452846FFF7F0FFBA
:103690000024ADF816406320ADF81400ADF81240D8
:1036A0002320ADF810008DF8184004A9284600F03A
:1036B0001DF9684600F0DEF86020ADF8000001203A
:1036C000ADF80200ADF80840ADF80640694628465E
:1036D00000F04AF86946284600F006F8012128461D
:1036E000FFF749FE07B030BD30B5028C22F0010271
:1036F0000284028C8388048B22F0020224F073057A
:103700000C882C430D8915434A882A43114DA84241
:103710000BD0114DA84208D0104DA84205D0104D35
:10372000A84202D00F4DA8420DD122F008054A89C7
:1037300023F440732A4322F004058A882A438D89A2
:103740001D43CB892B4383800483C98881860284EF
:1037500030BD0000002C0140003401400040014019
:10376000004401400048014070B5028C22F0100274
:103770000284028C8388048B0D8824F4E6464FF67D
:10378000FF7404EA052535430E8922F0200204EA7D
:10379000061616434A8804EA02123243104EB0421B
:1037A00002D0104EB04215D122F080064A8923F48F
:1037B000406304EA0212324322F040068A8804EA97
:1037C000021232438E8904EA86061E43CB8904EA3C
:1037D0008303334383800583C9880187028470BDD6
:1037E000002C01400034014070B5028C22F480525C
:1037F0000284058C8288838B0C8823F4E6464FF67E
:10380000FF7303EA0424344325F400560D8903EAC8
:10381000053535434E8803EA06362E43094DA84246
:1038200002D0094DA84205D122F480458A8903EAD5
:1038300082122A4382808483C988A0F840100684BB
:1038400070BD0000002C014000340140028C4FF696
:10385000FF7322F4005203EA0131114301847047DF
:10386000828B4FF6FF7322F4006203EA01211143B9
:10387000818370470021018041808180C180018166
:1038800041818181C181704781867047018770477E
:10389000A0F84010704781847047028B22F00C0220
:1038A0000283028B0A4302837047028B22F4406238
:1038B0000283028B4FF6FF7303EA01210A4302835E
:1038C0007047828B22F00C028283828B0A438283B0
:1038D0007047828B22F440628283828B4FF6FF73A3
:1038E00003EA01210A4382837047000030B5028851
:1038F0001B4C1C4DA0420DD0A8420BD0B0F1804F04
:1039000008D0194B984205D0184B984202D0184B5A
:10391000984203D122F070034A881A43154B98420B
:1039200006D0154B984203D022F44073CA881A433C
:1039300002808A8882850A880285A0420AD0A8422D
:1039400008D00E4A904205D00D4A904202D00D4A4E
:10395000904201D1097A01860121818230BD0000A7
:10396000002C0140003401400004004000080040E9
:10397000000C0040001000400014004000400140D6
:10398000004401400048014070B588B00121022088
:10399000FEF766FF1D4E3046FFF702FD4FF6FF7043
:1039A000ADF810004720ADF80C000024ADF812402F
:1039B000ADF80E4003A93046FFF798FF0C20ADF894
:1039C00000000125ADF80450ADF80240ADF8064006
:1039D000ADF8084069463046FFF7ACFD01221121E1
:1039E0003046FFF73DFE01213046FFF7C4FC1D20A5
:1039F0008DF818008DF819508DF81A508DF81B505D
:103A000006A8FEF72FFD08B070BD000000040040BE
:103A10007FB501210420FEF723FF184D2846FFF74C
:103A2000BFFC44F61F60ADF8040041F61F40ADF83E
:103A300000000024ADF80240ADF806406946284673
:103A4000FFF754FF01212846FFF792FC012211469F
:103A50002846FFF705FE01212846FFF78CFC1E20B3
:103A60008DF80C0006208DF80D008DF80E40012019
:103A70008DF80F0003A8FEF7F5FC7FBD000800409D
:103A80007FB501210420FEF7EBFE184D2846FFF715
:103A900087FC4EF65F20ADF8040048F69F40ADF875
:103AA00000000024ADF80240ADF806406946284603
:103AB000FFF71CFF01212846FFF75AFC012211469F
:103AC0002846FFF7CDFD01212846FFF754FC1E20B4
:103AD0008DF80C0007208DF80D008DF80E400120A8
:103AE0008DF80F0003A8FEF7BDFC7FBD0008004065
:103AF00008B501210820FEF7CBFE4FF4E040ADF8F9
:103B0000000048208DF8030003208DF8020069466C
:103B10000148FEF7C3FA08BD000C01402DE9F04151
:103B20004F48006814287DDD4E4C4FF480452946EF
:103B30002046FEF72DFB66144FF4805801280AD169
:103B400031462046FEF724FB28B941462046FEF7C1
:103B50001FFB012806D029462046FEF719FB012845
:103B600004D00DE0BDE8F041FEF76CBC31462046C4
:103B7000FEF70EFB20B941462046FEF709FBB0B127
:103B800029462046FEF704FB01280AD1314620468B
:103B9000FEF7FEFA012804D141462046FEF7F8FA66
:103BA00028B129462046FEF7F3FA20B10EE0BDE821
:103BB000F04100F09BB831462046FEF7E9FA28B9FB
:103BC00041462046FEF7E4FA012818D0294620464F
:103BD000FEF7DEFA58B931462046FEF7D9FA012839
:103BE00005D141462046FEF7D3FA012807D02946E1
:103BF0002046FEF7CDFA4FF4FA7720B10DE0BDE88C
:103C0000F04100F063B831462046FEF7C1FA20B912
:103C100041462046FEF7BCFA98B129462046FEF7F9
:103C2000B7FA00E019E0012817D131462046FEF727
:103C3000AFFA012811D141462046FEF7A9FA012822
:103C40000BD1FDF7AFFB6420FDF7EFFDFDF7A1FB06
:103C50003846BDE8F041FDF7E8BDBDE8F081000061
:103C600010010020000C014070B5124D4FF480414E
:103C70002846FEF78DFA642100FB01F469142846FA
:103C8000FEF786FA00EB800004EB4004A9142846F6
:103C9000FEF77EFA2218084803230421026318461F
:103CA000FEF75CFDFFF73AFFBDE8704003A1064850
:103CB000FCF7E1BA000C0140DC0000207472616383
:103CC0006B696E67000000001038002010B5064CCC
:103CD0002078283840B2FEF73DFB94F90000BDE89B
:103CE0001040FEF75FBB00005C00002010B5064CE2
:103CF00094F90000FEF72EFB2078BDE8104028382C
:103D000040B2FEF74FBB00005C00002070B50B4CCA
:103D100040F225552946204600F0C1F801280CD173
:103D2000204600F049F9064A2946107001205070DB
:103D30002046BDE8704000F093B870BD00380140E7
:103D40005800002070B504460D464FF08070FDF716
:103D50006BFC0B4E00213046FDF772FC08488038A2
:103D6000C0F88C40C0F8845001213046FDF768FC53
:103D7000B4042046FDF7E6FC0028FAD070BD000030
:103D80008000024070B5224C40F22441204600F0F1
:103D900086F800283BD02088201D00881D4E002179
:103DA0003046FDF74DFC3046FDF7C8FC1A4CC0F517
:103DB0008060A060A068351560B1207898B1A268D5
:103DC00016491748FEF71CFE00211648FFF763FD51
:103DD0000120E0700F486C3805673046BDE8704040
:103DE0000121FDF72DBCA068A84208D2A2680B49AA
:103DF000A1F58060FEF748F9A0686060EAE707492E
:103E00002A46A1F58060FEF73FF96560E2E770BDE4
:103E1000004400406C000240700000202C0900208B
:103E2000200100200008004070B50B4C40F22555E1
:103E30002946204600F033F801280CD1204600F036
:103E4000BBF8064A294690700120D0702046BDE894
:103E5000704000F005B870BD0048004058000020D8
:103E60000A0A01219140C9430180704700298189D4
:103E700002D041F4005101E021F4005181817047EA
:103E8000002A828A01D00A4300E08A438282704776
:103E90000246002012880A4200D00120704770B507
:103EA00001F01F0501260024C1F3421306FA05F2B2
:103EB000012B0FD0022B0FD0838A4FEA11210088EB
:103EC000134206FA01F600EA060001D000B101240F
:103ED000204670BD8389F0E7038AEEE710B5C1F391
:103EE000421301F01F040121A140012B07D0022B36
:103EF00007D01430002A026805D00A4304E00C30D1
:103F0000F8E71030F6E78A43026010BD30B504468A
:103F1000008A85B00D464CF6FF710840E9880143E0
:103F20002182A0894EF6F3110840A9882A891143FD
:103F30006A8902431143A181A08A4FF6FF410840DC
:103F4000A9890143A1826846FEF7BAFC1948844258
:103F500001D1039800E00298A189090400EBC00197
:103F600001EB0010296801D5490000E08900B0FB91
:103F7000F1F06422B0FBF2F109010B096FF01805B2
:103F80006B4300EB8300A3891D044FF0320306D579
:103F900003EBC000B0FBF2F000F0070005E003EB1C
:103FA0000010B0FBF2F000F00F000843208105B0D4
:103FB00030BD0000003801408088C0F30800704721
:103FC000C1F30801818070472DE9F05F0026DFF81A
:103FD0009CA03546B1463446B346254F0120C7F86C
:103FE0008001142007F5C077FDF72BFCC7F800B05F
:103FF00057468AF800B0AAF802B000211D48FFF722
:104000004AFC4FF6E85803E00120FDF71AFC641C57
:10401000387808B94445F7D3387878B1FEF7C8F84E
:10402000FCF76AFC1449FCF747FB1449FCF776FBE4
:104030004946FCF7E9FA761C8146F6B26D1C052D5F
:10404000CBDB86B13046FCF757FC01464846FCF70F
:1040500065FBFCF756FCCAF80400DAF80400BDE87A
:10406000F05FFCF740BCDAF80400F8E760000020DD
:104070000080214200040040000008420000FA4491
:104080000C4C4FF400450C4EFFF79EFFFCF739FC3B
:1040900002466063032304210220FEF75FFB606B8E
:1040A0000A2801DA756100E03561142002F02AF86F
:1040B000EAE70000DC0000200010014038B50121D3
:1040C0000820FEF7E5FB0120ADF8000003208DF885
:1040D000020010200D4C8DF8030069462046FDF7C4
:1040E000DDFF01212046FEF75AF80221ADF800104D
:1040F00004218DF8031069462046FDF7CFFF022109
:104100002046FEF74CF8FFF73FFC38BD000C01409D
:1041100010B50E4C20681E2801DDFEF793F92068CB
:104120000838162801D8FEF77DF9206807280CDC2E
:10413000FDF738F96420FDF778FBFDF72AF9BDE8B3
:1041400010404FF4FA70FDF770BB10BD1001002055
:1041500010B5FFF7DDFFBDE8104002A10448FCF7F1
:104160008AB8000020736F6E696320200000000091
:1041700010380020FEE7FEF7D3BC000001460148DE
:10418000FEF77CBD00480040FEF7A6BCFEF7B0BCC1
:10419000044CFFF7FBFF0028FBD0FFF7F5FF207072
:1041A000F7E70000DC0000200A2801D00B2801D12D
:1041B000FFF7E4BF7047000010B50548FEF736FC76
:1041C00000F0C8F8BDE810400248FEF701BC00004E
:1041D0002C09002020010020F0B506463948C1B066
:1041E000007801286CD138480178012968D100276E
:1041F00007703648FEF7E2FB040061D0601C00F057
:1042000039FA0546014622463048FEF7E6FB2F55AF
:1042100029462FA000F0C4F931A12846FBF7F8FF8A
:10422000A0B133A12846FBF7F3FF78B131A000F02D
:10423000B7F934480178012936D00178012905D928
:104240000770FFF71DFC3049012008702FA1284698
:10425000FBF7DEFF00282DD030A12846FBF7D8FF62
:1042600008B329462FA000F09BF94FF480716846EF
:10427000FBF7C3FF6946284600F081FF98B1684606
:1042800000F0F9FE2C4CA06280B124A100F0DCFE0D
:10429000E06228B100F0DBFE10B1E06A007D307012
:1042A000A06A00F0A9FE05E00770CFE7694623A0E9
:1042B00000F076F941B02846BDE8F04000F0ACB916
:1042C00041B0F0BD700000207300002020010020EC
:1042D00052656365697665643A2025730A000000BB
:1042E0002B4D515454434F4E4E3A302C3600000063
:1042F0004F4B000050494E472073756363657373DD
:104300000D0A0000720000207100002061747472B8
:104310006962757465732F707573680074656D706C
:1043200000000000494F5420707573682064617468
:10433000613A2573200D0A00DC0000204A534F4EDD
:10434000207061727365206661696C3A2025730A7A
:104350000000000038B501210420FEF799FA4FF45F
:104360008054ADF8004003208DF802001020064D67
:104370008DF8030069462846FDF790FE012221468C
:104380002846FDF710FF38BD000801402DE9F04137
:10439000144C07462078012821D013A000F000F922
:1043A00000211748FEF7E7FF164E00253570FDF790
:1043B00051FAFDF72BFC3870002810D112A000F044
:1043C000EFF81CA204210120FEF7E9F9FDF742FAFB
:1043D00001272770FFF754FB194805703770BDE8B7
:1043E000F0810000700000207769666920636F6EBD
:1043F0006E656374696E672E2E2E0D0A0000000034
:1044000000080040710000207769666920636F6EC4
:104410006E656374207375636365737320616E6486
:10442000206D717474207375622073756363657396
:10443000730D0A0077696669204F4B200000000069
:104440007200002010B50446FBF700FF81B2204641
:10445000BDE81040FFF776BC30B50E49C1B0044648
:104460000978012914D10D0229466846FBF7C5FEDB
:10447000237809A22946684600F0A2F869460CA0F4
:1044800000F08EF86846FDF71FFB1E20FDF7D4F9FB
:1044900041B030BD710000207B5C2274656D706599
:1044A0007261747572655C223A2025647D0000009B
:1044B000776966692073656E64206468743A257351
:1044C0000A000000144E154D154C307820B915A285
:1044D00004210120FEF763F91148801CFFF756FF05
:1044E00001210223A2780846FEF738F90C48FFF7AD
:1044F00073FE287830B12078FFF756FE142001F0C3
:1045000001FEE2E70AA000F04BF80FA2042101200F
:10451000FEF745F9D9E70000700000207100002087
:10452000DC0000207769666920434F4E2E000000B2
:104530005749464920636F6E6E65637420657272D9
:104540006F720D0A000000007769666920455252BB
:104550000000000070B5044642680C304FF48065DE
:104560001154A088401CC0F309006060A068401C82
:10457000A060A84208D305A000F012F8A560A088AA
:10458000401CC0F309002060002070BDE7BC93E52B
:1045900086B2E58CBAE5B7B2E6BBA15C720A000050
:1045A0000FB4054B10B503A9044A029800F064F952
:1045B00010BC5DF814FB0000E55100081401002058
:1045C0000FB41CB50246002007AC00290BD0491ED1
:1045D000CDE90021054B6A462146069800F04CF9CA
:1045E000009A002111701CBC5DF814FBA74F000855
:1045F0000FB4084B10B504A902AA039800F03CF9C7
:10460000044602A9002000F0D9FC204610BC5DF849
:1046100014FB0000BD4F000830B528B1144C031F37
:10462000002021680A4605E0084630BD9A4203D8BA
:1046300010465268002AF9D1002800D041680BD0FA
:104640000468A3EB0005A54204D11B681C44034683
:10465000046002E0436000E023603AB11C68D51AB0
:10466000A54203D115682C441C6052685A6030BDC5
:10467000180100202DE9F04782460F4C10480D4EDE
:104680000E4F001B4FF0000820F007054FF0010906
:1046900000221146504600F0EDFD002802D130689E
:1046A00010B10020BDE8F0873C60C4E90058C6F8AE
:1046B0000090EDE71C0100202438002018010020A4
:1046C000203A002002E008C8121F08C1002AFAD1CF
:1046D00070477047002001E001C1121F002AFBD182
:1046E000704700002DE9FF5F82B00021DDE9043052
:1046F000020DDDF840B0034318D044F61050A2F28A
:10470000FF3242431514119801281FD0A5EB0B006E
:10471000401C5FEA000A4FF000064E4FDFF8389168
:10472000B046504615D5CAF1000413E01198012493
:104730004AA3012801D16FEA0B010298119AC0E93E
:104740000031C0E9024206B0BDE8F09FCBF10000A5
:10475000DFE704460021404A491842EB0450CDE906
:10476000001012E0E00707D032463B46404649467B
:10477000FCF7BEFA8046894632463B46104619464B
:10478000FCF7B6FA06460F466410002CEAD1DDE9C4
:104790000401DDE90023BAF1000F06DAFCF7A8FAFC
:1047A00042464B46FCF7A4FA05E0FCF713FB4246F1
:1047B0004B46FCF70FFB04460E460022284BFCF745
:1047C00005F903D84FF0FF30014607E00022254BE2
:1047D00020463146FBF7E0FFFCF777FB102409E0A9
:1047E000002C0ADB0A220023FCF71EF9039B30325F
:1047F0001A55641E50EA0102F2D1641C039AC4F1F6
:1048000011031444119A012A03D0012208430DD147
:104810000AE0084304D000204FF0110B119072E71A
:10482000A3EB0B056D1E0DE05B4504DD4FF00002B0
:1048300005F1010504E003DA4FF00002A5F10105DE
:10484000002AECD002981199C0E90231C0E9004574
:1048500079E70000000014400000F03F3000000045
:104860000000F0430000E03F30380A2801D2012068
:1048700070470020704700002DE9FF4F95B09B4620
:104880008946064600250FE2252877D100242746D1
:10489000F84A0121059400E0044316F8013F203B4B
:1048A00001FA03F01042F7D130782A2811D06FF0C6
:1048B0002F033078A0F13002092A16D8059A44F067
:1048C000020402EB820203EB42021044761C0590C4
:1048D000EFE759F8042B0592002A03DA504244F41A
:1048E0000054059044F00204761C30782E2816D12E
:1048F00016F8010F44F004042A280DD06FF02F029F
:104900003078A0F13003092B09D807EB870302EBBD
:104910004303C718761CF3E759F8047B761C3078FC
:104920006C280FD006DC4C2817D068280DD06A28D8
:1049300014D104E0742810D07A280FD10DE044F48B
:1049400000140AE044F4801401E044F44014727846
:10495000824202D104F58014761C761C30786628D9
:104960000BD013DC582877D009DC002875D04528F7
:10497000F6D04628F4D047281AD19DE118E06328E4
:1049800035D0642879D0652812D195E1702873D08C
:1049900008DC6728F1D069286FD06E280DD06F2809
:1049A00006D1B5E073282CD0752875D0782874D03E
:1049B0005A46179990476D1C75E1C4F302500228BE
:1049C00009D003280DD0D9F8001004280DD00D60AF
:1049D00009F1040967E1D9F80010EA17C1E90052AA
:1049E000F6E7D9F800100D80F2E70D70F0E719F83E
:1049F000041B8DF8001000208DF80100EA4601200C
:104A000003E059F804AB4FF0FF3061074FF00001AD
:104A100002D40DE008F101018846B9420FDA804561
:104A2000F8DB1AF808100029F4D108E008F10101B8
:104A300088468142FADB1AF808100029F6D1059859
:104A40005B46A0EB080721463846179A00F094FA17
:104A5000284400EB080507E04DE029E10DE01AF8D5
:104A6000010B5A4617999047B8F10108F7D25B46F7
:104A700021463846179A13E142E00A220092C4F315
:104A800002524FF0000A022A08D059F804CB032A38
:104A90004FEAEC710AD00DE029E02AE009F10701A4
:104AA00021F00702F2E802C1914609E00FFA8CFCFE
:104AB0004FEAEC71042A03D14FFA8CFC4FEAEC71F7
:104AC000002907DA0A460021DCF1000C61EB020143
:104AD0002D2202E0220504D52B228DF8042001228C
:104AE00003E0E20701D02022F7E7904659E00A21CF
:104AF00002E010220DE010214FF0000A00910BE0BF
:104B000010224FF0000A44F004040827009203E04A
:104B100008224FF0000A0092C4F30252022A05D084
:104B200059F804CB0021032A08D009E009F1070154
:104B300021F00702F2E802C1914605E01FFA8CFC61
:104B4000042A01D10CF0FF0C4FF00008220728D5F1
:104B5000702806D0009B83F0100353EA0A0305D0A7
:104B60000EE040228DF80420012208E05CEA0102F8
:104B700006D030228DF804208DF8050002229046E0
:104B8000009B83F0080353EA0A030AD15CEA01029E
:104B900001D1620705D530228DF804204FF00108BD
:104BA0007F1E582804D034A003900EA802900DE078
:104BB00036A0F9E753466046009AFBF735FF844676
:104BC0000398825C0298401E029002705CEA010029
:104BD000F0D1029806A9081A00F1200A600702D550
:104BE00024F4803400E00127574502DDA7EB0A00DA
:104BF00000E0002000EB0A01009005984144401AB3
:104C00000590E00306D45B462146179A059800F00C
:104C1000B3F90544002706E001A85A46C05D17997C
:104C200090476D1C7F1C4745F6DBE0030CD55B46C7
:104C30002146179A059800F09FF9054404E03020BA
:104C40005A46179990476D1C0099481E00900029FC
:104C5000F5DC08E0029802995A460078491C029156
:104C6000179990476D1CBAF10001AAF1010AF1DC15
:104C700065E1000009280100303132333435363720
:104C80003839616263646566000000003031323398
:104C90003435363738394142434445460000000038
:104CA00000F058F90544761C307800287FF4ECAD0C
:104CB00019B02846BDE8F08F620700D4062709F135
:104CC000070222F0070CFCE80223E14603F000484B
:104CD0005FEA080C02D00FF2702C0DE05FEA045C72
:104CE00002D50FF2682C07E05FEAC47C02D00FF215
:104CF000602C01E0AFF2700C4FF0FF3823F000435E
:104D0000CDF850C065280CD006DC452809D04628CF
:104D10001DD047283DD13DE0662818D067287ED1B8
:104D200038E00021112F01DB112000E0781CCDE9D3
:104D3000000106A90EA8FFF7D5FCDDE90F010E9AC8
:104D400003910021009207F1010A04914DE04FF018
:104D500000400097CDE9011006A90EA8FFF7C2FC9C
:104D6000DDE90F0203920E9B11990022DDF80CA0E1
:104D70000093049211B9791C00EB010AB7EB0A0009
:104D800004D4C0F1FF3007F1010A0490AAEB070038
:104D9000019044E0012F00DA01270021112F01DDED
:104DA000112000E03846CDE9000106A90EA8FFF762
:104DB00099FCDDE90F010E9A039100210491009204
:104DC000BA4621070CD40399514500DA8A46BAF154
:104DD000010F05DD009AAAF10101515C302908D0CC
:104DE000B84202DA10F1040F06DA0121CDE9011010
:104DF00015E0AAF10101E9E7002805DC0499014466
:104E00000491AAEB000102E0411C514500DD8A46F5
:104E10000499401A401C01904FF000400290200776
:104E200004D40198504501DBCDF8048000208DF8B2
:104E30004F0002980DF14F07B0F1004F25D02B2005
:104E40000E9002984FF0020800280CDA40420290BF
:104E50002D200E9007E00A210298FBF7CFFD30319C
:104E6000029007F8011DB8F10001A8F10108F2DC79
:104E700002980028EFD1791E0E980870307800F063
:104E8000200040F0450007F8020D12A8C01B00F1F9
:104E900007081498007800B1012000EB0A0101987E
:104EA00001EBE07105984144401A401E0590E00373
:104EB00006D45B462146179A059800F05DF8054434
:104EC0001498007818B15A46179990476D1CE00362
:104ED00024D55B462146179A059800F04DF8054405
:104EE0001CE00498002807DBDDE90301884203DDAC
:104EF0000098405C179901E0179930205A46904776
:104F0000049805F10105401C04900198401E019091
:104F100004D12E205A46179990476D1CBAF1000112
:104F2000AAF1010ADDDC05E017F8010B5A461799D2
:104F300090476D1CB8F10001A8F10108F4DC5B4654
:104F40002146179A0598ABE62D0000002B000000C3
:104F5000200000002DE9F041044600251E461746BA
:104F6000880404D405E039462020B0476D1C641E37
:104F7000F9D52846BDE8F0812DE9F0410446002529
:104F80001E469046C80301D5302700E0202788043C
:104F900004D505E041463846B0476D1C641EF9D57E
:104FA0002846BDE8F0814A68002A06D00A68531CEA
:104FB0000B6010704868401E486070470A68531CB8
:104FC0000B601070704710B530B1036823B1D0E9A1
:104FD0000121914201D204E0002010BD491C8160F2
:104FE00020B1914202D25C5C202CF7D99142F4D1DD
:104FF000491E816010BD00002DE9F04104460027E4
:10500000104E1BE0A0892568C0050BD4A06820B114
:10501000FFF7F2FFA089C00504D4206910B17168C0
:1050200088472761A089800504D4206A10B171687F
:10503000884727627168204688472C46002CE1D1BA
:10504000BDE8F08130000020002200F0D5B8002833
:1050500003D0007B082801D0002070470120704752
:1050600010B5016828208847040002D02821FBF7EA
:10507000C4F8204610BD0022114600F06FB80000B1
:105080002DE9F04788B00F4606469A4615461C2182
:105090006846FBF7B2F82F480024002E04604460F5
:1050A00055D08146E7B30096CDE90174D9E90212E3
:1050B000D9F810000491CDE9052009F10800FFF7A7
:1050C000CFFF5FEA00082BD000986F4608B1029826
:1050D00008B100200CE00198042808D903221EA181
:1050E0000098FBF7D1F810B90298C01C029038461E
:1050F000FFF769FF0146404600F072FB68B1BAF164
:10510000000F13D06846FFF75EFFDDE90101814221
:1051100003D202990098405C40B14046FFF76CFF13
:10512000DDE9011088420AD204460BE01DB1029964
:10513000009808442860404608B0BDE8F087081E83
:1051400000D0441E0DB130192860C9E90064002068
:10515000F2E7000028000020EFBBBF0070B5154645
:105160000E46040009D0FBF771F8411C2B4632466D
:105170002046BDE87040FFF783BF002070BD70B5CA
:1051800000220C4601461346164602E07B2807D053
:10519000491C08780028F9D10025FBB1581C0CE007
:1051A0000B46521CF8E77B2902D07D2902D002E091
:1051B000521C00E0521E7AB1401C01780029F2D145
:1051C00063B15EB1F61A761C324619462046FBF7EB
:1051D00031F8A555012070BD0646F1E72570002085
:1051E00070BD000010B50446C1B20248FDF746FD8F
:1051F000204610BD003801402DE9F0418846A8B393
:10520000B8F1000F33D085680AB90AE02D686DB394
:10521000296A59B34046FBF720F80028F6D120E070
:105220002D681DB32E6A5FEA0804F9D0002EF7D06E
:10523000B44218D002E098B1641C761C2078FAF7CA
:10524000BDFF07463078FAF7B9FF87422078F2D0E1
:10525000FAF7B4FF04463078FAF7B0FF8442DFD1A2
:1052600025B1286A10B12846BDE8F081FFE700208B
:10527000FAE700002DE9F0410B3020F00706104D51
:1052800019E02068B04215D3B0420AD9871B201D0F
:10529000D4F80480FAF798FFA019C0E900782860D4
:1052A00004E060682860201DFAF78EFF201D26604C
:1052B000BDE8F081251D2C68002CE2D10020F7E725
:1052C000180100201CB54FF44070FDF7FDF8FDF704
:1052D00045FFFDF7A1F9FDF7AFFDFCF743F8FEF739
:1052E000EDFEFEF705FCFCF7D3F8FDF70FF8FEF72F
:1052F00063FFFDF7CFFCFCF7D9FFFEF73CFF0D483D
:10530000FFF74EF90C48FFF74BF90C490120CDE9A6
:105310000001420200230AA10D4801F075F801289E
:1053200005D00CA0FFF73CF94FF0FF301CBD00F09A
:1053300089FFFEE7806C0008CC6C0008E4000020C8
:105340004170705461736B43726561746500000055
:105350008D0F00085461736B206372656174696F0F
:105360006E206661696C6564210D0A002DE9F041CB
:1053700007460026C8680C463546B0F57A7F5BD2F2
:10538000401CE0602168A068095C5B2954D1401C86
:10539000A0602046FFF717FE4CB1D4E90110884207
:1053A00003D22268125C5D2A33D0884203D3A068FE
:1053B000401EA06040E0401E04F11008A06040467E
:1053C000FFF74EFE98B30EB3286045600546A0680F
:1053D000401CA0602046FFF7F6FD2146284600F05D
:1053E000FFF930B32046FFF7EEFD14B3D4E9011006
:1053F000884203D22168095C2C29E0D0626890427F
:1054000017D22168085C5D2813D102E006463546B4
:10541000DDE7E068401EE06006B175602020C7E966
:105420000260A068401CA0600120BDE8F081FFE799
:1054300016B13046FFF7E0FD0020F6E7034610B551
:1054400000200246995CA1F13004092C01D83038C3
:105450000AE0A1F14104052C01D8373804E0A1F19C
:105460006104052C08D857380844032A00D20001EB
:10547000521C042AE6D310BD002010BD2DE9F84FC0
:105480004FF0000A80460C004FF02E09504655465A
:105490005646CDF800A03ED02768CFB3D4E901210D
:1054A00022E07B18C35C342B1BD00ADCA3F12B0356
:1054B000092B1CD2DFE803F0151B152D1B15151544
:1054C0001500382B0DD006DC352B0AD0362B08D032
:1054D000372B0CD105E0392B03D0452B01D0652BA0
:1054E00005D16D1C401C14B10B189342D9D321690E
:1054F000681C884707000ED0A16820682A4601442E
:105500003846FAF761FE07F805A07EB100200BE0EF
:1055100001E00126E5E70020BDE8F88F395C2E297F
:1055200001D107F80090401CA842F7D369463846DD
:1055300000F06EFC054600980E46874203D1616973
:1055400038468847E7E7C8E90656144A144B284608
:105550003146FBF73BFA02D86FF0004108E0002229
:10556000104B28463146FBF719FA04D84FF000419A
:10557000C8F8141005E028463146FBF7EFF9C8F8E3
:1055800014000821C8F80C100099A068C91B084431
:10559000A0606169384688470120BDE70000C0FF70
:1055A000FFFFDF410000E0C12DE9F0410746002682
:1055B000C8680C463546B0F57A7F7BD2401CE06067
:1055C000002C77D0D4E90110884273D22168095C9D
:1055D0007B296FD1401CA0602046FFF7F4FCD4E982
:1055E0000110884203D22268125C7D2A4FD0884283
:1055F000A0F10100A0605DD204F110084046FFF761
:105600002FFDE8B30EB3286045600546CCB3D4E95E
:105610000110401C88424AD2A0602046FFF7D3FC0C
:105620002146284600F048F858B32046FFF7CBFC47
:105630002869286200202861D4E90110884236D206
:105640002168095C3A2932D102E006463546DDE799
:10565000401CA0602046FFF7B6FC2146284600F01B
:10566000BFF870B12046FFF7AEFCD4E901108842C4
:1056700003D22168095C2C29C0D06268904201E005
:1056800014E014E013D22168085C7D280FD1E06893
:10569000401EE06006B175604020C7E90260A06866
:1056A000401CA0600120BDE8F08103E016B1304647
:1056B000FFF7A2FC0020F6E72DE9F84F8146D1F86C
:1056C000088008684FF0000ACDF800A0D1F800C0AB
:1056D00000EB0804651C1CF80800641C0E465746C5
:1056E000222876D10021706807E05C2B04D1521C7F
:1056F00082426AD2491C641C641CA4EB0C028242E4
:1057000002D22378222BF0D1A4EB0C0282425CD28D
:105710002078222859D10CEB0800201A401A316950
:10572000401C8847070054D000973DE029785C2949
:1057300005D000986D1C00F8011B009034E0022198
:10574000601B012841DB6878662814D008DC222819
:105750001DD02F281BD05C2819D0622835D108E035
:105760006E280ED072280ED074280ED075282CD139
:1057700012E0082200E00C22009800F8012B0090B3
:1057800011E00A22F8E70D22F6E70922F4E7009A71
:1057900002F8010B009206E06A462146284600F016
:1057A00045FB010011D00D44A542BFD3009981F8FB
:1057B00000A01021C9E903173068201A401CB0600E
:1057C0000120BDE8F88F04E0FFE717B171693846A2
:1057D000884715B13068281AB0600020F1E7000052
:1057E00070B50C0005465ED0216800295BD0A0682A
:1057F0006368021D9A4205D80844042231A1FAF7D1
:1058000043FD78B3A0686268411D0126914206D825
:105810002168052208442DA1FAF736FD28B3A068B7
:105820006268011D914206D821680422084429A11A
:10583000FAF72AFDE8B1D4E90101814203D22268D6
:10584000525C222A1DD0814221D22268525C2D2A2C
:1058500002D0303A092A1AD821462846BDE87040BD
:10586000FFF70CBE0420E86006E0EE60A068401D73
:1058700004E002206E61E860A068001DA0600120C5
:1058800070BD21462846BDE87040FFF715BF814234
:1058900003D22268525C5B2A07D0814203D220687F
:1058A000405C7B2807D0002070BD21462846BDE81B
:1058B0007040FFF75BBD21462846BDE87040FFF70A
:1058C00073BE00006E756C6C0000000066616C7346
:1058D0006500000074727565000000002DE9F0415C
:1058E000184E0F460446F5683068001D00F006FBB0
:1058F00038B9306890F82C10012088403169814314
:105900003161601C07D137B13168BDE8F0410E4804
:10591000091D00F02BBB30682C44AC424460316858
:1059200005D2B06BBDE8F041091D00F007BB706BFC
:10593000091D00F003FBB06A844200D2B462BDE8E6
:10594000F08100007C000020FC0F00202DE9F041D8
:10595000054600F017FB2D4EB068401CB060306863
:105960002B4F10B1706930B32BE03560B06801285F
:1059700027D1002404EB840007EB800000F0D0FA6C
:10598000641C202CF6D3234800F0CAFA21481430B6
:1059900000F0C6FA1F48283000F0C2FA1D483C301B
:1059A00000F0BEFA1B48503000F0BAFA1948706394
:1059B0001430B06305E03068E96AC06A884200D8F4
:1059C0003560706A0121401C7062E86A326981406A
:1059D0001143316100EB800007EB8000291D00F0CE
:1059E000C5FA00F007FB706900280CD03068E96A3E
:1059F000C06A884207D208494FF080500860BFF360
:105A00004F8FBFF36F8FBDE8F08100007C00002056
:105A10002C0D0020AC0F002004ED00E070B5124EFC
:105A2000124D1CE000F056FC306820B1002400F05C
:105A30009BFDA4B901E00124F9E700F0A3FAF068A6
:105A4000C468201D00F05AFAA868401EA860686863
:105A5000401E686000F0CEFA204600F009F8686841
:105A60000028DFD170BD0000E80F00207C0000207E
:105A700010B50446006B00F0EBFA2046BDE810407C
:105A800000F0E6BA10484FF42051420706D0C01D7E
:105A90000D4920F00700411AC1F520510B4A00239F
:105AA0000144C2E900030839103A21F007011160EE
:105AB0004B600B600B1AC0E9001393604FF000407D
:105AC0005360D0607047000010100020D400002008
:105AD000074E4FF08054074DFFF7A0FF30680128B4
