:020000040800F2
:10000000682F002099010008B5020008A902000825
:10001000B3020008A5020008D90300080000000090
:1000200000000000000000000000000001010008C6
:10003000A702000800000000450100087503000841
:10004000B3010008B3010008B3010008B3010008C0
:10005000B3010008B3010008B3010008B3010008B0
:10006000B3010008B3010008B3010008B3010008A0
:10007000B3010008B3010008B3010008B301000890
:10008000B3010008B3010008B3010008B301000880
:10009000B3010008B3010008B3010008B301000870
:1000A000B3010008B3010008B3010008B301000860
:1000B000B3010008B3010008B3010008B301000850
:1000C000B3010008B3010008B3010008B301000840
:1000D000B3010008B3010008B3010008B301000830
:1000E000B3010008B3010008B3010008DFF80CD029
:1000F00000F07AF800480047E9050008682F002062
:10010000224B19680868B0E8F00F80F30988BFF344
:100110006F8F4FF0000080F311884EF00D0E704786
:100120000000000006480068006880F3088862B696
:1001300061B6BFF34F8FBFF36F8F00DF00BF00BF0B
:1001400008ED00E0EFF30980BFF36F8F0F4B1A68E3
:1001500020E9F00F106008B54FF0500080F31188CF
:10016000BFF34F8FBFF36F8F00F0D2FE4FF0000050
:1001700080F31188BDE8084019680868B0E8F00FFE
:1001800080F30988BFF36F8F704700BF1400002011
:10019000EFF3058070470000064880470648004797
:1001A000FEE7FEE7FEE7FEE7FEE7FEE7FEE7FEE727
:1001B000FEE7FEE789030008ED00000830B50B46B6
:1001C000014600202022012409E021FA02F59D4287
:1001D00005D303FA02F5491B04FA02F52844151E5B
:1001E000A2F10102F1DC30BD064C074D06E0E068EB
:1001F00040F0010394E8070098471034AC42F6D36E
:10020000FFF778FF1C1300083C1300081CB500F032
:10021000CFFC0D490220CDE90001020200230BA111
:100220000D4800F007FF01280BD00CA000F0D6F815
:100230000548001F006800F0B3FDBDE81C4000F059
:10024000EFBC0FA0F2E70000780000204C45445FAF
:100250005461736B00000000AB0200084C45445F22
:100260005461736BE4BBBBE58AA1E5889BE5BBBA2F
:10027000E5A4B1E8B4A5EFBC815C720A00000000FF
:100280004C45445F5461736BE4BBBBE58AA1E588D0
:100290009BE5BBBAE68890E58A9FEFBC815C720A59
:1002A00000000000FEE77047FEE7142000F040FD6C
:1002B000FBE7FEE770470000024908430249086077
:1002C000704700000000FA050CED00E00CB50022BC
:1002D000264800920192016841F4803101604FF498
:1002E000A063016801F4003101910099491C00915B
:1002F000019911B900999942F3D10168890333D565
:10030000012101911A490A6842F010020A600A6844
:1003100022F003020A600A6842F002020A604168A1
:10032000416041684160416841F4806141604168D9
:1003300021F47C114160416841F4E8114160016899
:1003400041F08071016001688901FCD5416821F0AC
:1003500003014160416841F0020141604168C1F31D
:1003600081010229FAD10CBD01920CBD001002409E
:100370000020024010B500F089FE012803D0BDE83E
:10038000104000F041BE10BD0F4810B5016841F0AB
:100390000101016041680D4A1140416001680C4A49
:1003A00011400160016821F480210160416821F45D
:1003B000FE0141604FF41F018160FFF787FF05498F
:1003C0004FF00060086010BD001002400000FFF810
:1003D000FFFFF6FE08ED00E0FEE700000FB4054B5E
:1003E00010B503A9044A029800F018F810BC5DF893
:1003F00014FB0000D50500087C00002002E008C8BE
:10040000121F08C1002AFAD170477047002001E08E
:1004100001C1121F002AFBD1704700002DE9FF4FD8
:100420008BB09A460F460546002606E025280BD0DD
:1004300052460D9990476D1C761C28780028F5D1FE
:100440000FB03046BDE8F08F0024A046012260497D
:1004500000E0044315F8013F203B02FA03F0084294
:10046000F7D128782E2817D115F8010F44F004048D
:100470002A280ED06FF02F022878A0F13001092928
:100480000AD808EB880102EB410100EB01086D1C62
:10049000F2E757F8048B6D1C287869283ED006DCFB
:1004A0000028CDD063280BD0642804D136E073280F
:1004B00010D075284BD052460D999047761C85E098
:1004C00017F8040B8DF8000000208DF80100E946B4
:1004D000012003E057F8049B4FF0FF3061074FF015
:1004E000000401D40AE0641C44450DDA8442FADBBE
:1004F00019F804100029F6D106E0641C8442FCDBE4
:1005000019F804100029F8D1264404E019F8010B69
:1005100052460D999047641EF8D257E001CF4FF034
:100520000A0B002802DA40422D2102E0210504D501
:100530002B218DF82410012103E0E10705D02021B3
:10054000F7E70DF1200908910CE00021F9E701CF50
:100550004FF00A0BF9E75946FFF730FE01F1300280
:1005600009F8012D0028F6D1ADEB090000F1200BB0
:10057000600701D44FF00108D84502DDA8EB0B005D
:1005800000E000208046002406E009A85246005DF5
:100590000D999047641C761C08988442F5DB04E0B2
:1005A000302052460D999047761CB8F10001A8F111
:1005B0000108F5DC05E019F8010B52460D9990474A
:1005C000761CBBF10001ABF1010BF4DC6D1C34E7D0
:1005D0000928010038B504468DF80000694603205B
:1005E000ABBE204638BD00001CB54FF44070FFF78D
:1005F00063FE0D48FFF7F2FE0C48FFF7EFFE0C49D3
:100600000120CDE90001420200230AA10D4800F0BB
:1006100011FD012805D00CA0FFF7E0FE4FF0FF30E0
:100620001CBD00F025FCFEE7D01200087C1200087B
:10063000740000204170705461736B437265617483
:10064000650000000D0200085461736B2063726541
:100650006174696F6E206661696C6564210D0A00C2
:100660002DE9F041184E0F460446F5683068001D2C
:1006700000F05AFA38B9306890F82C100120884000
:10068000316981433161601C07D137B13168BDE800
:10069000F0410E48091D00F07FBA30682C44AC428E
:1006A0004460316805D2B06BBDE8F041091D00F02F
:1006B0005BBA706B091D00F057FAB06A844200D231
:1006C000B462BDE8F0810000140000205003002057
:1006D0002DE9F041054600F06BFA2D4EB068401C44
:1006E000B06030682B4F10B1706930B32BE03560CB
:1006F000B068012827D1002404EB840007EB8000B8
:1007000000F024FA641C202CF6D3234800F01EFAD3
:100710002148143000F01AFA1F48283000F016FA69
:100720001D483C3000F012FA1B48503000F00EFA21
:10073000194870631430B06305E03068E96AC06A34
:10074000884200D83560706A0121401C7062E86AF6
:10075000326981401143316100EB800007EB80007A
:10076000291D00F019FA00F05BFA706900280CD01E
:100770003068E96AC06A884207D208494FF0805061
:100780000860BFF34F8FBFF36F8FBDE8F0810000AB
:1007900014000020800000200003002004ED00E091
:1007A00070B5124E124D1CE000F0AAFB306820B16B
:1007B000002400F0EFFCA4B901E00124F9E700F007
:1007C000F7F9F068C468201D00F0AEF9A868401E73
:1007D000A8606868401E686000F022FA204600F0B9
:1007E00009F868680028DFD170BD00003C030020D4
:1007F0001400002010B50446006B00F03FFA2046BC
:10080000BDE8104000F03ABA10484FF420514207BA
:1008100006D0C01D0D4920F00700411AC1F5205136
:100820000B4A00230144C2E900030839103A21F0C1
:10083000070111604B600B600B1AC0E90013936055
:100840004FF000405360D060704700006403002008
:100850006C000020074E4FF08054074DFFF7A0FFBB
:1008600030680128FAD92C60BFF34F8FBFF36F8F28
:10087000F4E700008000002004ED00E02DE9F047DF
:10088000DDE909840E4682466FF00301206B01EB1F
:1008900082010844089D20F007079946780705D093
:1008A00040F22B3218A11EA0FFF798FD002022185D
:1008B000315C82F83410315C11B1401C1028F6D341
:1008C000002684F84360202D00D31F25201DE562FB
:1008D00000F047F904F1180000F043F92461C5F174
:1008E00020006462A061666484F848604A4651460C
:1008F000384600F007F92060B8F1000F01D0C8F8C1
:100900000040BDE8F08700004672656552544F53C1
:100910005C7372635C7461736B732E630000000020
:100920004572726F723A25732C25640D0A0000001F
:1009300030B5114900E011460A688242FBD34B688A
:100940005C18844203D140681844486008464368F4
:100950001C18944209D1084C103C2468A24209D0CA
:1009600052681A4442600A6812680260814200D0EC
:10097000086030BD0460F9E76C0000200648416B58
:10098000096829B1416BC968C968496881627047C3
:100990004FF0FF31FAE700001400002008484068DB
:1009A000401C04D0F42207A10FA0FFF717FD502030
:1009B00080F31188BFF34F8FBFF36F8FFEE7000006
:1009C000500000204672656552544F535C706F7240
:1009D000745C525644535C41524D5F434D335C70DE
:1009E0006F72742E630000004572726F723A257345
:1009F0002C25640D0A0000002DE9F0410546002673
:100A000000F07EFA324F386808B9FFF7FDFEF8684B
:100A100005424FD1002D4DD0083568070BD005F0A9
:100A20000700C0F108000544680704D0BF2229A1CF
:100A300030A0FFF7D3FC002D3CD07868854239D830
:100A4000234910310846046801E0214604466068E5
:100A5000A84202D220680028F7D13868B8468442FC
:100A600028D00E682068086060680836401B10288F
:100A70000ED96719780704D0EC2216A11DA0FFF744
:100A8000ADFC6068401B786038466560FFF750FF3A
:100A90006168D8F804004246401AC8F80400D8F843
:100AA0000830984200D29060D8F80C000143002032
:100AB000C4E9000100F06EFB700705D04FF4967298
:100AC00004A10CA0FFF78AFC3046BDE8F0810000CD
:100AD0005C0000204672656552544F535C706F7223
:100AE000745C4D656D4D616E675C686561705F3407
:100AF0002E6300004572726F723A25732C25640DC7
:100B00000A00000010B5031F4FF080741C601B1F0B
:100B100021F001011960191F024B0B601439403894
:100B20000A6010BD9D090008D0E9013201699A6090
:100B3000D0E901235A604A68824201D182684A6042
:100B4000002202610868401E0860704700F1080139
:100B50004FF0FF32C0E90112C16001610021016064
:100B6000704700210161704730B50C68621C02D0EB
:100B700000F1080202E0026904E01A4653681D68A9
:100B8000A542FAD953684B6099608A605160086148
:100B90000168491C016030BD42684A6093688B60FF
:100BA00093685960916008610168491C0160704751
:100BB000502080F31188BFF34F8FBFF36F8F094927
:100BC0004868401C486001280AD10748006810F0B6
:100BD000FF0F05D04FF4BD7204A10DA0FFF7FEBBBF
:100BE000704700005000002004ED00E0467265658B
:100BF00052544F535C706F72745C525644535C4154
:100C0000524D5F434D335C706F72742E6300000071
:100C10004572726F723A25732C25640D0A0000002C
:100C200010B5084C606828B940F2811206A10FA0E7
:100C3000FFF7D4FB6068401E606001D180F311882B
:100C400010BD0000500000204672656552544F539D
:100C50005C706F72745C525644535C41524D5F43FA
:100C60004D335C706F72742E630000004572726FBA
:100C7000723A25732C25640D0A00000070B5002817
:100C80002AD0164DA0F108046068E968084205D131
:100C90004FF4A07212A11AA0FFF7A0FB206828B1A0
:100CA00040F241120EA116A0FFF798FB6068E968B8
:100CB000084211D02268002A0ED18843606000F0FB
:100CC0001FF960686968084468602046FFF730FED5
:100CD000BDE8704000F05EBA70BD00005C0000200E
:100CE0004672656552544F535C706F72745C4D650B
:100CF0006D4D616E675C686561705F342E630000E6
:100D00004572726F723A25732C25640D0A0000003B
:100D100006484FF47A710068B0FBF1F14FF0E02023
:100D2000491E416107210161704700000000002059
:100D300010B5040012D00E49096B29B140F2CF4220
:100D40000CA112A0FFF74AFB00F0DAF800212046C0
:100D5000FFF786FC00F01EFA002807D10F494FF07C
:100D600080500860BFF34F8FBFF36F8F10BD00003E
:100D7000140000204672656552544F535C737263D1
:100D80005C7461736B732E63000000004572726FB8
:100D9000723A25732C25640D0A00000004ED00E072
:100DA00070B50446FFF704FF234D04B92C68201DDD
:100DB000FFF7BAFE58B9E06A204A00EB800152F80A
:100DC000211021B901218140286988432861A06A46
:100DD00018B104F11800FFF7A7FE686A401C6862AA
:100DE0002868844207D1211D1548FFF7D5FE6868A1
:100DF000401C686007E0A868401EA8602046FFF716
:100E0000F9FCFFF7BBFDFFF70BFF6869002812D064
:100E1000286884420FD1286B28B140F2654209A1AD
:100E20000EA0FFF7DBFA11494FF080500860BFF3C6
:100E30004F8FBFF36F8F70BD140000208000002023
:100E40003C0300204672656552544F535C737263D5
:100E50005C7461736B732E63000000004572726FE7
:100E6000723A25732C25640D0A00000004ED00E0A1
:100E70001CB515480024CDE900402346802213A16B
:100E8000144800F0D7F801280AD0401C1BD102B04A
:100E900040F28472BDE810400FA115A0FFF79EBA82
:100EA000502080F31188BFF34F8FBFF36F8F064838
:100EB0004FF0FF312C38816201214161C460BDE8EF
:100EC0001C4000F065B81CBD4000002049444C4562
:100ED00000000000550800084672656552544F53E3
:100EE0005C7372635C7461736B732E63000000004B
:100EF0004572726F723A25732C25640D0A0000004A
:100F00000248016B491C0163704700001400002077
:100F100070B5134D286B10B10120E86170BD002041
:100F2000E86128690F4EB0FA80F0C0F11F0000EBB5
:100F3000800456F8240028B940F6F6220AA110A031
:100F4000FFF74CFA06EB840000F10802416849689B
:100F50004160914201D149684160C868286070BD14
:100F600014000020800000204672656552544F53E3
:100F70005C7372635C7461736B732E6300000000BA
:100F80004572726F723A25732C25640D0A000000B9
:100F90001CB51A4908780190FF20087008788DF870
:100FA00000009DF80000164A00F050001070072065
:100FB000906007E09068401E90609DF8000040003F
:100FC0008DF800009DF800000006F3D4107A0002AE
:100FD00000F4E0609060019808700A48016841F4EC
:100FE00070010160016841F070410160FFF790FEFF
:100FF00000205060FFF796F800201CBD00E400E0E0
:101000005000002020ED00E010B5502080F3118842
:10101000BFF34F8FBFF36F8F00F046F818B104494C
:101020004FF080500860002080F3118810BD000050
:1010300004ED00E02DE9FF5F8346DDE90E87994668
:1010400016468A469000FFF7D7FC05001AD04C20C0
:10105000FFF7D2FC040012D025630021CDE9024144
:10106000CDE900874B46324651465846FFF706FC0D
:101070002046FFF72DFB012004B0BDE8F09F284675
:10108000FFF7FCFD4FF0FF30F6E70000054841692F
:1010900019B1006B18B10020704701207047022081
:1010A00070470000140000202DE9F0412D4F00266C
:1010B000386B40B1B869401CB861F86900B10126CD
:1010C0003046BDE8F081FD686D1CFD6011D1786B84
:1010D000006828B140F6D91223A129A0FFF77EF9B4
:1010E000786BB96B7963B863386A401C3862FFF774
:1010F00045FCB86ADFF89880854209D3786B0068B0
:1011000080B1786BC068C468606885420DD2B862EF
:101110003868C06A00EB800158F821000128CCD95A
:101120000126CAE74FF0FF30F1E7201DFFF7FCFC76
:10113000A06A18B104F11800FFF7F6FCE06A01217B
:101140003A6981401143396100EB800108EB81006D
:10115000211DFFF721FDE06A3968C96A8842CDD3B5
:101160000126CBE7140000204672656552544F53A8
:101170005C7372635C7461736B732E6300000000B8
:101180004572726F723A25732C25640D0A000000B7
:10119000800000202DE9F0472B4D00242746286BC6
:1011A00028B94FF4FD6229A12EA0FFF717F9FFF728
:1011B000FFFC286B401E2863286BE8BBA8682D49FC
:1011C0000126C8B3A1F52A798846D8F80010E9B1FC
:1011D000D8F80C00C46804F11800FFF7A5FC201D26
:1011E000FFF7A2FCE06A2A6906FA00F111432961BF
:1011F00000EB800109EB8100211DFFF7CDFCE06AC7
:101200002968C96A8842E0D3EE61DEE70CB1FFF7D6
:10121000B5FBAC693CB1FFF747FF00B1EE61641E5E
:10122000F9D10020A861E86930B1134901273807D6
:101230000860BFF34F8F00E001E0BFF36F8FFFF74F
:10124000EFFC3846BDE8F087140000204672656563
:1012500052544F535C7372635C7461736B732E638F
:10126000000000004572726F723A25732C25640DE0
:101270000A0000002803002004ED00E0E58C85E56D
:1012800090ABE58A9FE883BD3AE7BAA2E5A496E968
:1012900081A5E68EA7E38081E8939DE78999E68E94
:1012A000A7E588B6E3808177696669E68EA7E58859
:1012B000B6E5B9B6E4B88AE68AA5E6B8A9E5BAA65D
:1012C000E695B0E68DAEE380815C720A0000000016
:1012D000E8BF99E698AF31E4B8AA53544D3332468B
:1012E00031303343385436E5BC80E58F91E69DBFFD
:1012F0002D4672656543544F532DE699BAE883BD78
:10130000E5B08FE8BDA6E9A1B9E79BAEE5AE9EE9E1
:10131000AA8CEFBC815C720A000000003C1300083C
:101320000000002080000000FC030008BC1300083F
:1013300080000020E82E00000C04000800A24A04EF
:101340000000000000000000010203040607080975
:10135000000000000000000000000000000000008D
:10136000000000000000000000000000000000007D
:10137000000000000000000000000000000000006D
:10138000000000000000000000000000000000005D
:10139000AAAAAAAA000000000000000000000000A5
:1013A000000000000000000000000000000000003D
:0C13B00000000000000000000000000031
:04000005080000ED02
:00000001FF
